:020000040040BA
:1000000000004620E10140006D0240006D0240000A
:100010006D0240006D0240006D02400000000000D3
:100020000000000000000000000000006D02400021
:100030006D024000000000006D0240006D024000B3
:100040006D0240006D0240006D0240006D024000F4
:100050006D0240006D0240006D0240006D024000E4
:100060006D024000000000006D0240006D02400083
:100070006D0240006D0240006D0240006D024000C4
:100080006D0240006D0240006D0240006D024000B4
:100090006D0240006D0240006D024000FD0840000E
:1000A0006D0240006D0240006D0240006D02400094
:1000B0006D0240006D0240006D0240006D02400084
:1000C0006D0240006D0240006D0240006D02400074
:1000D000000000006D024000000000006D024000C2
:1000E0006D0240006D0240006D0240006D02400054
:1000F0006D0240006D0240006D0240006D02400044
:100100006D0240006D0240006D0240006D02400033
:100110006D02400000000000000000000000000030
:100120006D0240006D0240006D0240006D02400013
:100130006D024000000000006D0240006D024000B2
:1001400080B400AF1F4B4FF400425A601E4B1F4A51
:100150001A601F4B1F4A1A6200BF1D4B9B6E03F0B3
:100160000103002BF9D01A4B1B4A1A6200BF184B2F
:100170009B6E03F48033002BF9D0154B174A9A621B
:1001800000BF134B9B6E03F00203002BF9D0104B02
:1001900040F201121A6300BF0D4B9B6E03F008037F
:1001A000002BF9D00A4B4FF481721A6300BF084B41
:1001B0009B6E03F00803002BF9D000BFBD465DF82D
:1001C000047B704750180E40000C0E4000050004E0
:1001D00000060E400908370009083701013F1820C2
:1001E00080B582B000AF1A4B7B601A4B3B6007E0D2
:1001F0003B681A1D3A607A68111D796012681A60AE
:100200003B68154A9342F3D3144B3B6004E03B68D0
:100210001A1D3A6000221A603B68114A9342F6D3D5
:10022000104A104BD3F8883043F47003C2F888307A
:10023000BFF34F8FBFF36F8F0A4B0B4A9A60BFF328
:100240004F8FBFF36F8FFFF77BFF00F093FBFEE74D
:10025000180A40000000402050004020500040207C
:100260006400402000ED00E00000400080B400AFDA
:10027000FEE7FFFF80B485B000AFF860B9607A6038
:10028000FB68914A93420CD1904B9B6903F48063C5
:10029000002B06D18D4A8D4B1B6943F4806313619B
:1002A0004EE0FB688A4A934218D1884B9B6903F45D
:1002B0000063002B12D1854A844B1B6943F4006311
:1002C0001361BB68B3F5805F3AD88249814BD3F89C
:1002D0001421BB681343C1F8143131E0FB687E4A36
:1002E00093420CD1794B9B6903F48053002B06D1C8
:1002F000764A764B1B6943F48053136120E0FB6818
:10030000764A93420CD1714B9B6903F48033002BE6
:1003100006D16E4A6D4B1B6943F4803313610FE0C5
:10032000FB686F4A93420BD1684B9B6903F400331F
:10033000002B05D1654A654B1B6943F400331361FB
:100340007B6803F00103002B0CD0FB681A68BB68C4
:100350001A43FB681A60FB685A69BB681A43FB685A
:100360005A6124E07B6803F00203002B14D0FB6881
:100370001A68BB681A43FB681A60FB681A69BB6895
:100380001A43FB681A61FB68D3F8A020BB681A43C4
:10039000FB68C3F8A0200AE07B6803F00403002B8D
:1003A00005D0FB685A68BB681A43FB685A607B68D3
:1003B00003F00803002B0ED0FB68D3F89020BB6835
:1003C0001A43FB68C3F89020FB685A6EBB681A4357
:1003D000FB685A6626E07B6803F01003002B0ED002
:1003E000FB681A6EBB681A43FB681A66FB68D3F891
:1003F0009420BB681A43FB68C3F8942012E07B6822
:1004000003F02003002B0DD0FB681A6EBB681A4363
:10041000FB681A66FB68D3F89020BB681A43FB6838
:10042000C3F890207B6803F04003002B14D0FB68D6
:100430001A68BB681A43FB681A60FB685A69BB6894
:100440001A43FB685A61FB68D3F80021BB681A4362
:10045000FB68C3F800210DE07B6803F08003002BEC
:1004600008D0FB68D3F80021BB68DB431A40FB6867
:10047000C3F800217B6803F48073002B12D0FB6863
:100480001A68BB681A43FB681A60FB685A69BB6844
:100490001A43FB685A61FB681A6ABB681A43FB6817
:1004A0001A620AE07B6803F40073002B05D0FB6836
:1004B0001A6ABB681A43FB681A6200BF1437BD464C
:1004C0005DF8047B704700BF000E0E4000060E4032
:1004D00000100E400080084000120E4000140E4034
:1004E00000160E4080B483B000AF786039607B683E
:1004F0003A681A6300BF0C37BD465DF8047B70474D
:1005000080B483B000AF786039607B683A685A6322
:1005100000BF0C37BD465DF8047B704780B584B0E2
:1005200000AFF860B9601346FB71FB79002B04D073
:10053000B968F868FFF7D6FF03E0B968F868FFF715
:10054000DFFF00BF1037BD4680BDFFFFB0B491B0E4
:1005500000AF78601A4B07F10C041D460FCD0FC495
:100560000FCD0FC495E8070084E807000023FB6364
:10057000FB6B9B0007F14002134453F8343C114AD3
:10058000B2FBF3F27B68B2FBF3F3BB63BB6BB3F577
:10059000807F06D9FB6B0133FB63FB6B0A2BE7D92A
:1005A00000E000BFFB6B0A2B04D8FB6B1A02BB6B8D
:1005B000134300E0002318464437BD46B0BC7047E3
:1005C000E409400080D1F00880B584B000AF7860C5
:1005D00039607B68144A934206D1144A134B1B6955
:1005E00043F0004313610BE07B68114A934215D13D
:1005F0000E4A0E4BD3F8003143F08053C2F800315D
:100600007B680F229A603868FFF7A0FFF860FB68EC
:10061000002B05D07B68FA681A6002E000BF00E09A
:1006200000BF1037BD4680BD0000024000060E40EE
:1006300000C0054080B485B000AFF8600B467A601A
:10064000FB72FB7A7A68364941F82320FB7AFA6814
:1006500010335B0113440B221A60FB7AFA681033E3
:100660005B011344043364221A60FB7AFA685B016D
:10067000134403F503737A681A60FB6800229A64D6
:10068000FB681B6AFA7A012101FA02F21A43FB683D
:100690001A62FB689B6EFA7A01219140FA7A103255
:1006A000012000FA02F20A40D2431A40FB689A661F
:1006B000FB68D3F8C030FA7A01219140FA7A1032FF
:1006C000012000FA02F20A40D2431A40FB68C3F844
:1006D000C020FB68DB6EFA7AD200FF2101FA02F239
:1006E000D2431A40FB68DA66FB7AFA7AF96810326C
:1006F00052010A44126822F40022F96810335B01A7
:100700000B441A60FB7A012202FA03F31A46FB68D3
:100710005A6000BF1437BD465DF8047B704700BFC8
:100720005000402080B483B000AF0346FB710949FC
:1007300097F907305B09FA7902F01F02012000FAED
:1007400002F241F8232000BF0C37BD465DF8047B60
:10075000704700BF00E100E00FB4B0B588B000AF53
:100760005F496048FFF730FF07F13403BB610023A6
:10077000FB771FE0BB6903F11402BA613C1D1D4603
:100780000FCD0FC42B6823607B7D42F234121946D3
:100790005448FFF74FFF7B68B96802221846FFF7FD
:1007A00069FDFB6839693A7D1846FFF763FDFB7FF9
:1007B0000133FB77FA7F3B6B9A42DBDB4A4B5B7C76
:1007C00042F2341219464748FFF734FF474B5B7C2F
:1007D00042F2341219464348FFF72CFF444B5B7C2E
:1007E00042F2341219463F48FFF724FF414B5B7C2D
:1007F00042F2341219463B48FFF71CFF3A4B186887
:10080000394B5B6802221946FFF734FD374B1868F5
:10081000364B5B6802221946FFF72CFD344B1868F3
:10082000334B5B6802221946FFF724FD314B1868F1
:10083000304B5B6802221946FFF71CFD2A4B986873
:10084000294BDB6800221946FFF714FD274B9868F7
:10085000264BDB6801221946FFF70CFD244B9868F4
:10086000234BDB6801221946FFF704FD214B9868F2
:10087000204BDB6801221946FFF7FCFC022208210D
:100880001D48FFF7F7FC02224FF400711A48FFF7EA
:10089000F1FC02224FF400311748FFF7EBFC022273
:1008A0004FF400011448FFF7E5FC08211248FFF758
:1008B00019FE4FF400711048FFF714FE4FF4003199
:1008C0000D48FFF70FFE4FF400010B48FFF70AFE3B
:1008D00000BF2037BD46BDE8B04004B0704700BF40
:1008E00080D1F008000002400000402014004020A9
:1008F000280040203C00402000120E4080B500AF90
:10090000094B1B6A03F01003002B0BD0074B1B781D
:10091000DBB2DB43DAB2054B114619700121044802
:10092000FFF7FCFD00BF80BD00C00040600040201C
:1009300000100E4080B500AF0C4B4FF400021A615E
:100940000B4B44F204025A60094B49F64042DA610B
:10095000074B05221A60064B10225A62044B0522EF
:100960001A601720FFF7DEFE00BF80BD00060E40B4
:1009700000C00040F0B593B012AF0222012114482C
:10098000FFF778FC134E144B0CAC1D460FCD0FC473
:100990002B682360114B07AC1D460FCD0FC42B688D
:1009A00023600F4B02AC1D460FCD0FC42B68236094
:1009B0006A4606F10C0393E8030082E8030096E818
:1009C0000E000420FFF7C8FEFFF7B4FFFEE700BFEC
:1009D00000100E40000040203C0040202800402035
:1009E000140040200100000002000000040000008C
:1009F000080000001000000020000000400000007F
:100A0000800000000001000000020000000400005F
:040A1000F8B500BF76
:040A1400F8B500BF72
:100A180000120E400000400000120E4000200000AE
:100A28000000000000120E4004000000000E0E40FE
:100A3800010000000101000000120E40000001004A
:100A4800000E0E40008000000102000000120E405F
:100A580000000010000E0E4000100000010300000E
:04000005004001E1D5
:00000001FF
