:020000040040BA
:1000000000004620E10140006D0240006D0240000A
:100010006D0240006D0240006D02400000000000D3
:100020000000000000000000000000006D02400021
:100030006D024000000000006D0240006D024000B3
:100040006D0240006D0240006D0240006D024000F4
:100050006D0240006D0240006D0240006D024000E4
:100060006D024000000000006D0240006D02400083
:100070006D0240006D0240006D0240006D024000C4
:100080006D0240006D0240006D0240006D024000B4
:100090006D0240006D0240006D0240006D024000A4
:1000A0006D0240006D0240006D0240006D02400094
:1000B0006D0240006D0240006D0240006D02400084
:1000C0006D0240006D0240006D0240006D02400074
:1000D000000000006D024000000000006D024000C2
:1000E0006D0240006D0240006D0240006D02400054
:1000F0006D0240006D0240006D0240006D02400044
:100100006D0240006D0240006D0240006D02400033
:100110006D02400000000000000000000000000030
:100120006D0240006D0240006D0240006D02400013
:100130006D024000000000006D0240006D024000B2
:1001400080B400AF1F4B4FF400425A601E4B1F4A51
:100150001A601F4B1F4A1A6200BF1D4B9B6E03F0B3
:100160000103002BF9D01A4B1B4A1A6200BF184B2F
:100170009B6E03F48033002BF9D0154B174A9A621B
:1001800000BF134B9B6E03F00203002BF9D0104B02
:1001900040F201121A6300BF0D4B9B6E03F008037F
:1001A000002BF9D00A4B4FF481721A6300BF084B41
:1001B0009B6E03F00803002BF9D000BFBD465DF82D
:1001C000047B704750180E40000C0E4000050004E0
:1001D00000060E400908370009083701013F1820C2
:1001E00080B582B000AF1A4B7B601A4B3B6007E0D2
:1001F0003B681A1D3A607A68111D796012681A60AE
:100200003B68154A9342F3D3144B3B6004E03B68D0
:100210001A1D3A6000221A603B68114A9342F6D3D5
:10022000104A104BD3F8883043F47003C2F888307A
:10023000BFF34F8FBFF36F8F0A4B0B4A9A60BFF328
:100240004F8FBFF36F8FFFF77BFF00F0D9FCFEE706
:10025000340F4000000040200000402000004020FB
:100260000401402000ED00E00000400080B400AF39
:10027000FEE7FFFF80B485B000AFF860B9607A6038
:10028000FB68914A93420CD1904B9B6903F48063C5
:10029000002B06D18D4A8D4B1B6943F4806313619B
:1002A0004EE0FB688A4A934218D1884B9B6903F45D
:1002B0000063002B12D1854A844B1B6943F4006311
:1002C0001361BB68B3F5805F3AD88249814BD3F89C
:1002D0001421BB681343C1F8143131E0FB687E4A36
:1002E00093420CD1794B9B6903F48053002B06D1C8
:1002F000764A764B1B6943F48053136120E0FB6818
:10030000764A93420CD1714B9B6903F48033002BE6
:1003100006D16E4A6D4B1B6943F4803313610FE0C5
:10032000FB686F4A93420BD1684B9B6903F400331F
:10033000002B05D1654A654B1B6943F400331361FB
:100340007B6803F00103002B0CD0FB681A68BB68C4
:100350001A43FB681A60FB685A69BB681A43FB685A
:100360005A6124E07B6803F00203002B14D0FB6881
:100370001A68BB681A43FB681A60FB681A69BB6895
:100380001A43FB681A61FB68D3F8A020BB681A43C4
:10039000FB68C3F8A0200AE07B6803F00403002B8D
:1003A00005D0FB685A68BB681A43FB685A607B68D3
:1003B00003F00803002B0ED0FB68D3F89020BB6835
:1003C0001A43FB68C3F89020FB685A6EBB681A4357
:1003D000FB685A6626E07B6803F01003002B0ED002
:1003E000FB681A6EBB681A43FB681A66FB68D3F891
:1003F0009420BB681A43FB68C3F8942012E07B6822
:1004000003F02003002B0DD0FB681A6EBB681A4363
:10041000FB681A66FB68D3F89020BB681A43FB6838
:10042000C3F890207B6803F04003002B14D0FB68D6
:100430001A68BB681A43FB681A60FB685A69BB6894
:100440001A43FB685A61FB68D3F80021BB681A4362
:10045000FB68C3F800210DE07B6803F08003002BEC
:1004600008D0FB68D3F80021BB68DB431A40FB6867
:10047000C3F800217B6803F48073002B12D0FB6863
:100480001A68BB681A43FB681A60FB685A69BB6844
:100490001A43FB685A61FB681A6ABB681A43FB6817
:1004A0001A620AE07B6803F40073002B05D0FB6836
:1004B0001A6ABB681A43FB681A6200BF1437BD464C
:1004C0005DF8047B704700BF000E0E4000060E4032
:1004D00000100E400080084000120E4000140E4034
:1004E00000160E4080B483B000AF786039607B683E
:1004F0003A681A6300BF0C37BD465DF8047B70474D
:1005000080B483B000AF786039607B683A685A6322
:1005100000BF0C37BD465DF8047B704780B584B0E2
:1005200000AFF860B9601346FB710422B968F8683F
:10053000FFF7A0FEFB7903F00103002B06D0FB6858
:100540001A6FBB681A43FB681A6706E0FB681A6FEC
:10055000BB68DB431A40FB681A67FB7903F00203B0
:10056000002B06D0FB685A6FBB681A43FB685A67BA
:1005700006E0FB685A6FBB68DB431A40FB685A67AA
:1005800000BF1037BD4680BD80B584B000AFF860B5
:10059000B9607A60FB686C4A93421ED16B4A6B4B20
:1005A0001B6943F08003136104224FF40071684813
:1005B000FFF760FE04224FF480616548FFF75AFEA2
:1005C00000224FF400716248FFF7A8FF00224FF4A9
:1005D00080615F48FFF7A2FF8CE0FB685D4A9342B1
:1005E0001AD15A4A594B1B6943F480731361042290
:1005F00020215748FFF73EFE042240215448FFF7D0
:1006000039FE022220215248FFF788FF02224021B2
:100610004F48FFF783FF6DE0FB684F4A934220D1BC
:100620004A4A4A4BD3F8003143F48053C2F80031B0
:1006300004224FF000714948FFF71CFE04224FF0DE
:1006400080614648FFF716FE02224FF000714348D2
:10065000FFF764FF02224FF080614048FFF75EFF22
:1006600048E0FB683E4A934220D1384A374BD3F8E2
:10067000003143F40053C2F8003104224FF080519E
:100680003648FFF7F7FD04224FF080413348FFF76B
:10069000F1FD00224FF080513048FFF73FFF00226C
:1006A0004FF080412D48FFF739FF23E0FB682D4ACA
:1006B00093421FD1254A254BD3F8003143F48043A0
:1006C000C2F8003104224FF480212448FFF7D2FD04
:1006D00004224FF400212148FFF7CCFD02224FF401
:1006E00080211E48FFF71AFF02224FF400211B4809
:1006F000FFF714FFFB685A687B685B0203F46063D2
:100700001A43FB685A60FB680022DA60BB681B0171
:10071000154AB2FBF3F2FB681A62FB681B6823F010
:10072000A002FB681A60FB681B6843F05002FB687C
:100730001A6000BFFB685B6903F00203002BF9D06D
:1007400000BF1037BD4680BD00080E4000060E40B9
:10075000000E0E40000A0E40001A0E4000140E401B
:10076000001C0E40001E0E4080D1F00880B586B0FF
:1007700000AFF860B9601346FB71FB68594A9342B9
:100780000CD1594B1B6903F40013002B06D1564AB8
:10079000554B1B6943F40013136112E0FB68534A85
:1007A00093420ED1504BD3F8003103F48063002BF9
:1007B00007D14D4A4C4BD3F8003143F48063C2F863
:1007C0000031FB6800225A60FB6800221A63FB6854
:1007D00000225A63FB6800229A63FB680022DA63F6
:1007E000FB68FF229A61FB6882221A60FB685B68E3
:1007F00043F01102FB685A60FB685A68FB685A6054
:10080000FB7903F00803002B68D0FB681A6BFB79B7
:1008100003F003031A43FB681A63FB681A6BFB6857
:100820001A63BB68002B01D10123BB60304ABB684F
:10083000B2FBF3F3FB75FB7D002B01D10123FB75AC
:10084000FB681B6BFA7D12021A43FB681A63FB6894
:100850005B6BFA7D12021A43FB685A63FB689B6B61
:10086000FA7D12021A43FB689A63FB68DB6BFA7D20
:1008700012021A43FB68DA6304224FF480011D4818
:10088000FFF7F8FC01224FF480011A48FFF746FEFB
:1008900004224FF400111748FFF7ECFC01224FF43B
:1008A00000111448FFF73AFE04224FF4801111485A
:1008B000FFF7E0FC01224FF480110E48FFF72EFEF7
:1008C000FB681B6843F00102FB681A6000BFFB680D
:1008D0001B6903F48033002BF9D000E000BF183708
:1008E000BD4680BD0080004000060E4000800540EF
:1008F00080D1F00800140E4080B483B000AF78605F
:100900000B46FB7000BF7B681B6903F40073002B70
:10091000F9D0FA787B68DA6000BF0C37BD465DF825
:10092000047B704780B485B000AF78607B681B693A
:10093000DBB203F00103FB73FB7B18461437BD46A3
:100940005DF8047B704780B485B000AF78607B6849
:100950009B68FB73FB7B18461437BD465DF8047B30
:10096000704780B582B000AF78600B46FB70FB78B3
:1009700019467868FFF7C0FF00BF7868FFF7D2FF1D
:100980000346002BF9D07868FFF7DDFF03461846D1
:100990000837BD4680BDFFFF90B585B000AF034668
:1009A0000A46FB711346BB71FB7903F01F03FB7111
:1009B0004FF080611948FFF7A3FDFB7919461848ED
:1009C000FFF7CFFF174B1B78DBB21A46164B1344C9
:1009D000BB600023FB7312E0124B1B78DBB25A1C86
:1009E000D1B2104A11701C4600210D48FFF7B9FF23
:1009F00003461A460C4B1A55FB7B0133FB73FA7BFB
:100A0000BB799A42E8D34FF080610448FFF76AFD52
:100A1000BB6818461437BD4690BD00BF00140E4099
:100A200000800040000040200400402080B582B0DB
:100A300000AF0346FB71FB7901211846FFF7ACFFBD
:100A400003461B7818460837BD4680BD80B584B084
:100A500000AF03463960FB711346BB71FB7903F0AD
:100A60001F03FB714FF080611248FFF749FDFB79CE
:100A700043F02003DBB219460F48FFF772FF002353
:100A8000FB730AE03B685A1C3A601B7819460A4817
:100A9000FFF767FFFB7B0133FB73FA7BBB799A425D
:100AA000F0D34FF080610348FFF71CFD00BF103703
:100AB000BD4680BD00140E400080004080B582B06D
:100AC00000AF03460A46FB711346BB71FB7903F086
:100AD0001F03FB714FF080610C48FFF711FDFB799C
:100AE00043F02003DBB219460948FFF73AFFBB7910
:100AF00019460748FFF735FF4FF080610348FFF7BD
:100B0000F1FC00BF0837BD4680BD00BF00140E4099
:100B10000080004080B582B000AF4FF0806109488E
:100B2000FFF7EEFCFF210848FFF71BFF0346FB71B0
:100B30004FF080610348FFF7D5FCFB791846083772
:100B4000BD4680BD00140E400080004080B584B0DA
:100B500000AF78600B46FB704FF080611048FFF7E4
:100B6000CFFCA0210F48FFF7FCFE0023FB730AE037
:100B7000FB7B7A6813441B7819460A48FFF7F1FE9D
:100B8000FB7B0133FB73FA7BFB789A42F0D34FF087
:100B900080610348FFF7A6FC00BF1037BD4680BD4B
:100BA00000140E400080004080B500AF4FF080611F
:100BB0000648FFF7A5FCE1210548FFF7D2FE4FF0FC
:100BC00080610248FFF78EFC00BF80BD00140E401C
:100BD0000080004080B500AF4FF080610648FFF70D
:100BE0008FFCE2210548FFF7BCFE4FF08061024810
:100BF000FFF778FC00BF80BD00140E40008000406D
:100C0000B0B592B000AF02220121AB48FFF732FB32
:100C100002220221A848FFF72DFB02220421A64848
:100C2000FFF728FB02220821A348FFF723FB042239
:100C30004FF4E131A148FFF7A7FC0A22A049A148DF
:100C4000FFF794FD02224FF000719F48FFF712FB5F
:100C500002224FF080619C48FFF70CFB4FF080614F
:100C60009948FFF73FFC4FF000719748FFF748FCA9
:100C700000237B6403E000BF7B6C01337B647B6CEF
:100C8000924A9342F7D90C210020FFF717FF3F212A
:100C90000120FFF713FF00211D20FFF70FFF0021A8
:100CA0001C20FFF70BFF70210720FFF707FFFFF75E
:100CB00091FFFFF779FF0020FFF7B8FE034687F8A2
:100CC000433097F8433043F0020387F8433097F8F6
:100CD000433019460020FFF7F1FE0023FB6302E0DA
:100CE000FB6B0133FB63FB6B794A9342F8D900201D
:100CF000FFF79CFE034687F8433097F8433023F014
:100D0000010387F8433097F8433019460020FFF776
:100D1000D5FE1F210520FFF7D1FE0620FFF786FE36
:100D2000034687F8433097F8433023F0280387F8C9
:100D3000433097F8433023F0060387F8433097F8A1
:100D4000433043F0060387F8433097F843301946A1
:100D50000620FFF7B3FE35210420FFF7AFFE5D4A02
:100D600007F1240392E8030018600433197007F1B7
:100D70002403052219460A20FFF768FE07F1240321
:100D8000052219461020FFF761FE20211120FFF7F0
:100D900095FE514B3C1D1D460FCD0FC495E80F002D
:100DA00084E80F003B1D20211846FFF7CFFE4FF0CF
:100DB00000714548FFF796FB002387F8433004E0B5
:100DC000FFF7A8FE034687F8433097F8433003F057
:100DD0003003002BF4D04FF000713B48FFF790FB3D
:100DE00097F8433003F02003002B25D0012132482F
:100DF000FFF778FB02213048FFF774FB0023BB6349
:100E000003E000BFBB6B0133BB63BB6B2F4A934254
:100E1000F7D901212848FFF773FB02212648FFF785
:100E20006FFB00237B6303E000BF7B6B01337B63BD
:100E30007B6B264A9342F7D997F8433003F01003AF
:100E4000002BAFD004211C48FFF74CFB08211A48A7
:100E5000FFF748FB00233B6303E000BF3B6B01331C
:100E60003B633B6B194A9342F7D904211248FFF7C1
:100E700047FB08211048FFF743FB0023FB6203E018
:100E800000BFFB6A0133FB62FB6A104A9342F7D949
:100E9000FFF740FE034687F8433097F8433043F0AE
:100EA000100387F8433097F8433019460720FFF7BF
:100EB00005FEFFF779FE75E700100E4000080E40B2
:100EC00040420F000080004000140E403F420F00DF
:100ED0009F860100040F40000C0F40000A0A4E528A
:100EE000462052656769737465722044756D703A67
:100EF0000A0A00003A202020000000000A0000003A
:100F00000A0A000000010203040000004D6573732B
:100F10006167652030000000000000000000000054
:0C0F2000000000000000000000000000C5
:040F2C00F8B500BF55
:040F3000F8B500BF51
:04000005004001E1D5
:00000001FF
