:020000040040BA
:1000000000004620E10140006D0240006D0240000A
:100010006D0240006D0240006D02400000000000D3
:100020000000000000000000000000006D02400021
:100030006D024000000000006D0240006D024000B3
:100040006D0240006D0240006D0240006D024000F4
:100050006D0240006D0240006D0240006D024000E4
:100060006D024000000000006D0240006D02400083
:100070006D0240006D0240006D0240006D024000C4
:100080006D0240006D0240006D0240006D024000B4
:100090006D0240006D0240006D0240009D14400062
:1000A0006D0240006D0240006D0240006D02400094
:1000B0006D0240006D0240006D0240006D02400084
:1000C0006D0240006D0240006D0240006D02400074
:1000D000000000006D024000000000006D024000C2
:1000E0006D0240006D0240006D0240006D02400054
:1000F0006D0240006D0240006D0240006D02400044
:100100006D0240006D0240006D0240006D02400033
:100110006D02400000000000000000000000000030
:100120006D0240006D0240006D0240006D02400013
:100130006D024000000000006D0240006D024000B2
:1001400080B400AF1F4B4FF400425A601E4B1F4A51
:100150001A601F4B1F4A1A6200BF1D4B9B6E03F0B3
:100160000103002BF9D01A4B1B4A1A6200BF184B2F
:100170009B6E03F48033002BF9D0154B174A9A621B
:1001800000BF134B9B6E03F00203002BF9D0104B02
:1001900040F201121A6300BF0D4B9B6E03F008037F
:1001A000002BF9D00A4B4FF481721A6300BF084B41
:1001B0009B6E03F00803002BF9D000BFBD465DF82D
:1001C000047B704750180E40000C0E4000050004E0
:1001D00000060E400908370009083701013F1820C2
:1001E00080B582B000AF1A4B7B601A4B3B6007E0D2
:1001F0003B681A1D3A607A68111D796012681A60AE
:100200003B68154A9342F3D3144B3B6004E03B68D0
:100210001A1D3A6000221A603B68114A9342F6D3D5
:10022000104A104BD3F8883043F47003C2F888307A
:10023000BFF34F8FBFF36F8F0A4B0B4A9A60BFF328
:100240004F8FBFF36F8FFFF77BFF01F06FF9FEE772
:100250006C194000000040207000402070004020D9
:100260008401402000ED00E00000400080B400AFB9
:10027000FEE7FFFF80B485B000AFF860B9607A6038
:10028000FB68914A93420CD1904B9B6903F48063C5
:10029000002B06D18D4A8D4B1B6943F4806313619B
:1002A0004EE0FB688A4A934218D1884B9B6903F45D
:1002B0000063002B12D1854A844B1B6943F4006311
:1002C0001361BB68B3F5805F3AD88249814BD3F89C
:1002D0001421BB681343C1F8143131E0FB687E4A36
:1002E00093420CD1794B9B6903F48053002B06D1C8
:1002F000764A764B1B6943F48053136120E0FB6818
:10030000764A93420CD1714B9B6903F48033002BE6
:1003100006D16E4A6D4B1B6943F4803313610FE0C5
:10032000FB686F4A93420BD1684B9B6903F400331F
:10033000002B05D1654A654B1B6943F400331361FB
:100340007B6803F00103002B0CD0FB681A68BB68C4
:100350001A43FB681A60FB685A69BB681A43FB685A
:100360005A6124E07B6803F00203002B14D0FB6881
:100370001A68BB681A43FB681A60FB681A69BB6895
:100380001A43FB681A61FB68D3F8A020BB681A43C4
:10039000FB68C3F8A0200AE07B6803F00403002B8D
:1003A00005D0FB685A68BB681A43FB685A607B68D3
:1003B00003F00803002B0ED0FB68D3F89020BB6835
:1003C0001A43FB68C3F89020FB685A6EBB681A4357
:1003D000FB685A6626E07B6803F01003002B0ED002
:1003E000FB681A6EBB681A43FB681A66FB68D3F891
:1003F0009420BB681A43FB68C3F8942012E07B6822
:1004000003F02003002B0DD0FB681A6EBB681A4363
:10041000FB681A66FB68D3F89020BB681A43FB6838
:10042000C3F890207B6803F04003002B14D0FB68D6
:100430001A68BB681A43FB681A60FB685A69BB6894
:100440001A43FB685A61FB68D3F80021BB681A4362
:10045000FB68C3F800210DE07B6803F08003002BEC
:1004600008D0FB68D3F80021BB68DB431A40FB6867
:10047000C3F800217B6803F48073002B12D0FB6863
:100480001A68BB681A43FB681A60FB685A69BB6844
:100490001A43FB685A61FB681A6ABB681A43FB6817
:1004A0001A620AE07B6803F40073002B05D0FB6836
:1004B0001A6ABB681A43FB681A6200BF1437BD464C
:1004C0005DF8047B704700BF000E0E4000060E4032
:1004D00000100E400080084000120E4000140E4034
:1004E00000160E4080B483B000AF786039607B683E
:1004F0003A681A6300BF0C37BD465DF8047B70474D
:1005000080B483B000AF786039607B683A685A6322
:1005100000BF0C37BD465DF8047B704780B584B0E2
:1005200000AFF860B9601346FB71FB79002B04D073
:10053000B968F868FFF7D6FF03E0B968F868FFF715
:10054000DFFF00BF1037BD4680BD80B584B000AF6F
:10055000F860B9601346FB710422B968F868FFF7C8
:1005600089FEFB7903F00103002B06D0FB681A6FAC
:10057000BB681A43FB681A6706E0FB681A6FBB6822
:10058000DB431A40FB681A67FB7903F00203002B78
:1005900006D0FB685A6FBB681A43FB685A6706E0CF
:1005A000FB685A6FBB68DB431A40FB685A6700BFA1
:1005B0001037BD4680BDFFFFB0B491B000AF78608A
:1005C0001A4B07F10C041D460FCD0FC40FCD0FC4FD
:1005D00095E8070084E807000023FB63FB6B9B00A2
:1005E00007F14002134453F8343C114AB2FBF3F2D2
:1005F0007B68B2FBF3F3BB63BB6BB3F5807F06D9BB
:10060000FB6B0133FB63FB6B0A2BE7D900E000BFF8
:10061000FB6B0A2B04D8FB6B1A02BB6B134300E085
:10062000002318464437BD46B0BC7047C41740008D
:1006300080D1F00880B584B000AF786039607B6805
:10064000144A934206D1144A134B1B6943F00043EA
:1006500013610BE07B68114A934215D10E4A0E4B91
:10066000D3F8003143F08053C2F800317B680F2289
:100670009A603868FFF7A0FFF860FB68002B05D090
:100680007B68FA681A6002E000BF00E000BF103724
:10069000BD4680BD0000024000060E4000C005407F
:1006A00080B485B000AFF8600B467A60FB72FB7ACD
:1006B0007A68364941F82320FB7AFA6810335B01E7
:1006C00013440B221A60FB7AFA6810335B0113445F
:1006D000043364221A60FB7AFA685B01134403F561
:1006E00003737A681A60FB6800229A64FB681B6ACD
:1006F000FA7A012101FA02F21A43FB681A62FB68D6
:100700009B6EFA7A01219140FA7A1032012000FAA8
:1007100002F20A40D2431A40FB689A66FB68D3F89B
:10072000C030FA7A01219140FA7A1032012000FAA1
:1007300002F20A40D2431A40FB68C3F8C020FB68AB
:10074000DB6EFA7AD200FF2101FA02F2D2431A409C
:10075000FB68DA66FB7AFA7AF968103252010A44C9
:10076000126822F40022F96810335B010B441A600E
:10077000FB7A012202FA03F31A46FB685A6000BFB3
:100780001437BD465DF8047B704700BF7000402001
:1007900080B485B000AF78600B46FB701346BB7029
:1007A000BB7807EE903AB8EEE76B9FED195B86EEEB
:1007B000057BF7EEC77BC7ED037AFB78164A52F844
:1007C000233007EE903AB8EEE77AFB78124A52F8F7
:1007D000233007EE903AF8EEE76AD7ED037A66EE3B
:1007E000A77A77EE677AFCEEE77A17EE903ABB606D
:1007F000FB787A6810335B0113440433BA681A60DB
:1008000000BF1437BD465DF8047B7047AFF300802E
:1008100000000000000059407000402080B586B004
:1008200000AFF860B9601346FB71FB68594A934208
:100830000CD1594B1B6903F40013002B06D1564A07
:10084000554B1B6943F40013136112E0FB68534AD4
:1008500093420ED1504BD3F8003103F48063002B48
:1008600007D14D4A4C4BD3F8003143F48063C2F8B2
:100870000031FB6800225A60FB6800221A63FB68A3
:1008800000225A63FB6800229A63FB680022DA6345
:10089000FB68FF229A61FB6882221A60FB685B6832
:1008A00043F01102FB685A60FB685A68FB685A60A3
:1008B000FB7903F00803002B68D0FB681A6BFB7907
:1008C00003F003031A43FB681A63FB681A6BFB68A7
:1008D0001A63BB68002B01D10123BB60304ABB689F
:1008E000B2FBF3F3FB75FB7D002B01D10123FB75FC
:1008F000FB681B6BFA7D12021A43FB681A63FB68E4
:100900005B6BFA7D12021A43FB685A63FB689B6BB0
:10091000FA7D12021A43FB689A63FB68DB6BFA7D6F
:1009200012021A43FB68DA6304224FF480011D4867
:10093000FFF7A0FC01224FF480011A48FFF705FEE3
:1009400004224FF400111748FFF794FC01224FF4E2
:1009500000111448FFF7F9FD04224FF480111148EB
:10096000FFF788FC01224FF480110E48FFF7EDFDE0
:10097000FB681B6843F00102FB681A6000BFFB685C
:100980001B6903F48033002BF9D000E000BF183757
:10099000BD4680BD0080004000060E40008005403E
:1009A00080D1F00800140E4080B483B000AF7860AE
:1009B0000B46FB7000BF7B681B6903F40073002BC0
:1009C000F9D0FA787B68DA6000BF0C37BD465DF875
:1009D000047B704780B485B000AF78607B681B698A
:1009E000DBB203F00103FB73FB7B18461437BD46F3
:1009F0005DF8047B704780B485B000AF78607B6899
:100A00009B68FB73FB7B18461437BD465DF8047B7F
:100A1000704780B582B000AF78600B46FB70FB7802
:100A200019467868FFF7C0FF00BF7868FFF7D2FF6C
:100A30000346002BF9D07868FFF7DDFF0346184620
:100A40000837BD4680BDFFFF80B584B000AF0346C8
:100A5000FB71FB7903F01F03FB714FF080610C48C1
:100A6000FFF74EFDFB7919460A48FFF7D2FF002138
:100A70000848FFF7CEFF0346FB734FF08061044840
:100A8000FFF730FDFB7B18461037BD4680BD00BF29
:100A900000140E400080004080B584B000AF0346D3
:100AA0003960FB711346BB71FB7903F01F03FB71C7
:100AB0004FF080611248FFF723FDFB7943F02003DC
:100AC000DBB219460F48FFF7A4FF0023FB730AE0CF
:100AD0003B685A1C3A601B7819460A48FFF799FF91
:100AE000FB7B0133FB73FA7BBB799A42F0D34FF067
:100AF00080610348FFF7F6FC00BF1037BD4680BD9C
:100B000000140E400080004080B582B000AF034664
:100B10000A46FB711346BB71FB7903F01F03FB719F
:100B20004FF080610C48FFF7EBFCFB7943F02003AA
:100B3000DBB219460948FFF76CFFBB791946074835
:100B4000FFF767FF4FF080610348FFF7CBFC00BF62
:100B50000837BD4680BD00BF00140E400080004035
:100B600080B582B000AF4FF080610948FFF7C8FC44
:100B7000FF210848FFF74DFF0346FB714FF08061EE
:100B80000348FFF7AFFCFB7918460837BD4680BD28
:100B900000140E400080004080B582B000AF0346D4
:100BA000FB71FB79102B02D8FB791133FB71FB79B8
:100BB0001846FFF749FF034618460837BD4680BD73
:100BC00090B585B000AF0346FB71FB791846FFF77F
:100BD000E3FF0346BB734FF080611848FFF790FCBA
:100BE00061211748FFF715FF0023FB7312E0154B37
:100BF0001B78DBB25A1CD1B2124A11701C46FF217D
:100C00000F48FFF706FF03461A460F4B1A55FB7BAA
:100C10000133FB73FA7BBB7B9A42E8D34FF08061D0
:100C20000648FFF75FFC074B1B78DAB2BB7BD31A91
:100C3000DBB218461437BD4690BD00BF00140E400D
:100C400000800040800040208400402080B500AF3C
:100C50004FF080610648FFF753FCE1210548FFF79C
:100C6000D8FE4FF080610248FFF73CFC00BF80BD1A
:100C700000140E400080004080B500AF4FF080614E
:100C80000648FFF73DFCE2210548FFF7C2FE4FF0A2
:100C900080610248FFF726FC00BF80BD00140E40B3
:100CA0000080004080B582B000AF0346FB71FB7945
:100CB00003F03F03DBB219460120FFF725FF00BF19
:100CC0000837BD4680BD80B584B000AF0346FB71D8
:100CD0000020FFF7B9FE0346FB73FB7B23F0010303
:100CE000FB73FB79012B03D1FB7B43F00103FB7307
:100CF000FB7B19460020FFF707FF00BF1037BD46FA
:100D000080BDFFFF80B582B000AF0020FFF79CFEE2
:100D10000346FB71FB7903F00103002B05D04FF074
:100D200000710448FFF7ECFB00E000BF0837BD4648
:100D300080BD00BF00140E4080B582B000AF00201F
:100D4000FFF782FE0346FB71FB7903F00103002BE2
:100D500005D04FF000710448FFF7C4FB00E000BF6E
:100D60000837BD4680BD00BF00140E4080B584B07A
:100D700000AF02224FF000712A48FFF77BFA0222EF
:100D80004FF080612748FFF775FA4FF080612548E2
:100D9000FFF7A8FB4FF000712248FFF7B1FB0023DB
:100DA000FB6003E000BFFB680133FB60FB681E4A89
:100DB0009342F7D90C210020FFF7A6FE3F20FFF752
:100DC00071FF00211D20FFF79FFE00211C20FFF76F
:100DD0009BFE70210720FFF797FEFFF74DFFFFF7FF
:100DE00035FF0020FFF730FE0346FB71FB7943F02F
:100DF0000203FB71FB7919460020FFF785FE0023F3
:100E0000BB6002E0BB680133BB60BB68074A93422A
:100E1000F8D90020FFF757FF012318461037BD46C9
:100E200080BD00BF00140E403F420F009F860100AE
:100E300080B582B000AF0346FB71FB7903F07F03FE
:100E4000FB71FB7919460520FFF75EFE00BF0837EE
:100E5000BD4680BD80B584B000AF0346FB7106205F
:100E6000FFF7F2FD0346FB73FB7B23F02803FB73C4
:100E7000FB79012B0ED0022B07D0002B00D00FE006
:100E8000FB7B43F02003FB7305E0FB7B43F008038F
:100E9000FB7300E000BFFB7B19460620FFF734FE22
:100EA0001037BD4680BD80B584B000AF0346FB71EE
:100EB0000620FFF7C9FD0346FB73FB7B23F0060307
:100EC000FB7397F9073003F006035AB297F90F3016
:100ED00013435BB2FB73FB7B19460620FFF714FE3E
:100EE00000BF1037BD4680BD80B582B000AF39600D
:100EF00011461A460346FB710B46BB7113467B71C4
:100F0000FB79092B02D8FB790A33FB71FB7903F0DB
:100F10000F03FB71FB790B2B02D9BB79012B0ED888
:100F2000BA79FB7939681846FFF7B6FDFB790733C4
:100F3000DBB27A7911461846FFF7E6FD00E000BF04
:100F40000837BD4680BD80B582B000AFFFF708FE10
:100F50000346FB71FB795B08DBB203F00703DBB2EE
:100F600018460837BD4680BD80B584B000AF7860B4
:100F700000BF00F01CF80346002BFAD0FFF7E3FF98
:100F80000346FB73FFF7BEFEFB7B1846FFF718FE18
:100F900003461A467B681A7040210720FFF7B4FD0C
:100FA000FFF7CAFEFB7B18461037BD4680BD80B5F3
:100FB00082B000AFFFF7D4FD0346FB71FB7903F06D
:100FC0004003002B06D0FFF7BEFF0346072B01D0DE
:100FD000012300E0002318460837BD4680BDFFFF0F
:100FE00080B483B000AF0346FB71094997F907301D
:100FF0005B09FA7902F01F02012000FA02F241F8BF
:10100000232000BF0C37BD465DF8047B704700BF4E
:1010100000E100E080B5DEB000AF3B1D186007F1D5
:101020000C033C4A184611464FF4B6731A4600F0BA
:101030002FFB05E03B1D3A1D1268A2F5B4721A6041
:101040003B1D1B68B3F5B47FF4DA05E03B1D3A1D88
:10105000126802F5B4721A603B1D1B68002BF5DBA9
:101060003B1D1B68B3F5B47F15DA3B1D1B68B3F558
:10107000877F10DB3B1D3A1D1268C2F5B4721A60FF
:1010800007F10C023B1D1B689B001344D3ED007A53
:10109000F1EE677A37E03B1D1B68B3F5877F13DA03
:1010A0003B1D1B68B32B0FDD3B1D3A1D1268B43A84
:1010B0001A6007F10C023B1D1B689B001344D3ED23
:1010C000007AF1EE677A1EE03B1D1B68B32B12DC41
:1010D0003B1D1B685A2B0EDD3B1D3A1D1268C2F1E9
:1010E000B4021A6007F10C023B1D1B689B001344FD
:1010F000D3ED007A07E007F10C023B1D1B689B0053
:101100001344D3ED007AB0EE670A07F5BC77BD460D
:1011100080BD00BFF017400080B483B000AF78609E
:101120007B68002B01DB012301E04FF0FF33184601
:101130000C37BD465DF8047B704780B483B000AFC8
:1011400078607B68002BB8BF5B4218460C37BD4601
:101150005DF8047B7047FFFF80B584B000AF786016
:1011600046494748FFF766FA0023FB7341E0FB7BE3
:101170009B007A6813441B685B7D42F23412194667
:101180003F48FFF78DFAFB7B9B007A6813441B688E
:101190005868FB7B9B007A6813441B689B6802229B
:1011A0001946FFF767F8FB7B9B007A6813441B68BE
:1011B000D868FB7B9B007A6813441B681969FB7B2A
:1011C0009B007A6813441B681B7D1A46FFF7BDF924
:1011D000FB7B9B007A6813441B680022DA75FB7B5B
:1011E0009B007A6813441B6800229A75FB7B0133CD
:1011F000FB73FB7B032BBAD9002200212048FFF7A9
:10120000C7FA002201211E48FFF7C2FA002202217C
:101210001B48FFF7BDFA002203211948FFF7B8FA6F
:10122000022208211748FFF725F802224FF4007127
:101230001448FFF71FF802224FF400311148FFF75E
:1012400019F802224FF400010E48FFF713F80821A5
:101250000C48FFF747F94FF400710A48FFF742F9CD
:101260004FF400310748FFF73DF94FF400010548FE
:10127000FFF738F900BF1037BD4680BD80D1F008B8
:101280000000024000120E4084B080B500AF07F1AC
:10129000080E8EE80F0097F82030642B02D96423E3
:1012A00087F8203097F82030FB7797F82430BB7709
:1012B000F868396997F92430012B0CBF012300230A
:1012C000DBB21A46FFF72AF97B7FFA7F19460448FA
:1012D000FFF75EFA00BFBD46BDE8804004B070472E
:1012E00000000240B0B52DED028B8AB004AFF8606B
:1012F000084611461A460346FB720B463B811346CD
:10130000FB80FB7A642B01D96423FB720023BB753D
:10131000B8E0BB7D9B00FA6813441B681B78012B67
:101320001DD1FB7A07EE903AB8EEE78AB7F908309C
:101330003C331846FFF76EFEF0EE407A28EE277A2F
:10134000B7F9063007EE903AF8EEE77A77EE677A6B
:10135000FDEEE77AC7ED007A3B78FB7570E0BB7D68
:101360009B00FA6813441B681B78022B1DD1FB7A83
:1013700007EE903AB8EEE78AB7F908303C3B1846DA
:10138000FFF748FEF0EE407A28EE277AB7F90630EC
:1013900007EE903AF8EEE77A77EE277AFDEEE77AF5
:1013A000C7ED007A3B78FB754AE0BB7D9B00FA688D
:1013B00013441B681B78032B1DD1FB7A07EE903A70
:1013C000B8EEE78AB7F9083082331846FFF722FEF5
:1013D000F0EE407A28EE277AB7F9063007EE903A19
:1013E000F8EEE77A77EE677AFDEEE77AC7ED007AF6
:1013F0003B78FB7524E0BB7D9B00FA6813441B68B7
:101400001B78042B43D1FB7A07EE903AB8EEE78ABB
:10141000B7F90830823B1846FFF7FCFDF0EE407A42
:1014200028EE277AB7F9063007EE903AF8EEE77A19
:1014300077EE277AFDEEE77AC7ED007A3B78FB7509
:10144000BB7D9B00FA6813441C6897F91730184657
:10145000FFF773FE0346DDB297F917301846FFF722
:101460005BFE0346039302956A4604F1100393E87A
:10147000030082E8030094E80F00FFF705FFBB7D3F
:101480000133BB75BB7D032B7FF643AF00E000BF8C
:1014900000BF1837BD46BDEC028BB0BD80B500AFB4
:1014A0000E4B1B6A03F01003002B15D00023002203
:1014B00000210B48FFF716FF0A4B1B78DBB2DB431A
:1014C000DAB2084B1146197001210748FFF726F8D8
:1014D00002210548FFF714F800BF80BD00C000409E
:1014E000600040208100402000100E4080B500AF19
:1014F0000C4B4FF400021A610B4B44F204025A6089
:10150000094B44F62062DA61074B05221A60064B4C
:1015100010225A62044B05221A601720FFF760FD63
:1015200000BF80BD00060E4000C0004080B584B002
:1015300000AF022201214F48FEF79CFE0222022149
:101540004C48FEF797FE4C48FFF706FEFFF7CEFF2C
:101550000A224A494A48FFF761F9FFF707FC0120D0
:10156000FFF7B1FB1F20FFF763FC0120FFF772FCC0
:101570000620FFF798FC434A07F1080392E80300AE
:1015800018600433197007F10801012305220120B6
:10159000FFF7AAFCFFF7D0FB00BFFFF708FD0346EB
:1015A000002BFAD002213348FEF79CFF0023FB7189
:1015B000FB1D1846FFF7D8FC0346FB73FB7B184660
:1015C000FFF7EAFA0346BB73FB791A462E4B9B5C86
:1015D000572B06D10023002214212748FFF782FE53
:1015E00041E0FB791A46284B9B5C412B07D1002335
:1015F0006FF0590214212048FFF774FE33E0FB79A5
:101600001A46214B9B5C532B06D10023B422142194
:101610001948FFF767FE26E0FB791A461A4B9B5CD8
:10162000442B06D100235A2214211348FFF75AFEF7
:1016300019E0FB791A46144B9B5C512B07D16FF0D4
:101640000903002200210C48FFF74CFE0BE0FB7958
:101650001A460D4B9B5C452B05D10A230022002125
:101660000548FFF73FFE094A084B1B6843F0040397
:10167000136091E700100E406000402040420F00D0
:10168000008000405C1940008400402000C0004001
:10169000844641EA000313F003036DD1403A41D37D
:1016A00051F8043B40F8043B51F8043B40F8043B3C
:1016B00051F8043B40F8043B51F8043B40F8043B2C
:1016C00051F8043B40F8043B51F8043B40F8043B1C
:1016D00051F8043B40F8043B51F8043B40F8043B0C
:1016E00051F8043B40F8043B51F8043B40F8043BFC
:1016F00051F8043B40F8043B51F8043B40F8043BEC
:1017000051F8043B40F8043B51F8043B40F8043BDB
:1017100051F8043B40F8043B51F8043B40F8043BCB
:10172000403ABDD2303211D351F8043B40F8043B6B
:1017300051F8043B40F8043B51F8043B40F8043BAB
:1017400051F8043B40F8043B103AEDD20C3205D37B
:1017500051F8043B40F8043B043AF9D2043208D073
:10176000D2071CBF11F8013B00F8013B01D30B88E5
:1017700003806046704700BF082A13D38B078DD0C3
:1017800010F003038AD0C3F10403D21ADB071CBF95
:1017900011F8013B00F8013B80D331F8023B20F8FF
:1017A000023B7BE7043AD9D3013A11F8013B00F838
:1017B000013BF9D20B7803704B7843708B788370C0
:1017C00060467047010000000200000004000000B5
:1017D0000800000010000000200000004000000091
:1017E0008000000000010000000200000004000072
:1017F000000000007FF78E3C41F20E3D465E563DF4
:101800003CDC8E3DD87EB23DC712D63D7496F93D84
:101810005E830E3E3C30203EC8D0313E6F63433E77
:10182000E2E6543E8E59663E67BA773EED83843ECB
:101830004B208D3EC8B1953E7A379E3ED9B0A63E2C
:101840003F1DAF3E037CB73E5CCCBF3EE50DC83EBE
:10185000B33FD03E6361D83E2A72E03E6171E83EFC
:10186000815EF03EE338F83E0000003F88D9033F38
:10187000C6A8073F766D0B3F46270F3FE0D5123FC6
:101880001479163F8C101A3F069C1D3F1E1B213FEA
:10189000C18D243F7CF3273F2B4C2B3F6C972E3F71
:1018A0001BD5313FF704353FAB26383F043A3B3F69
:1018B000C03E3E3FAD34413F861B443F0AF3463FA6
:1018C00017BB493F69734C3FBD1B4F3FF2B3513FBC
:1018D000D63B543F25B3563FAC19593F4C6F5B3F45
:1018E000E1B35D3F19E75F3FE108623F0919643FDB
:1018F0005D17663FCD03683F27DE693F37A66B3F24
:10190000EE5B6D3F2AFF6E3FB88F703F880D723FD0
:101910007978733F68D0743F4415763FED46773F42
:101920005265783F5070793FE8677A3FE84B7B3FDC
:10193000611C7C3F1FD97C3F34827D3F7F177E3FF7
:10194000FE987E3FA3067F3F5B607F3F37A67F3FC9
:1019500017D87F3F0AF67F3F0000803F0001020357
:0419600004FFFFFF82
:04196400F8B500BF13
:04196800F8B500BF0F
:10196C000100000000120E4004000000000E0E40AA
:10197C0001000000000000000200000000120E40F8
:10198C0000010000000E0E400010000001010000DC
:10199C000300000000120E4000000100000E0E407B
:1019AC0000000002010200000400000000120E40C2
:1019BC000000400000120E40002000000103000057
:1019CC0000004020300040201800402048004020FB
:04000005004001E1D5
:00000001FF
