:020000040040BA
:1000000000004620E10140006D0240006D0240000A
:100010006D0240006D0240006D02400000000000D3
:100020000000000000000000000000006D02400021
:100030006D024000000000006D0240006D024000B3
:100040006D0240006D0240006D0240006D024000F4
:100050006D0240006D0240006D0240006D024000E4
:100060006D024000000000006D0240006D02400083
:100070006D0240006D0240006D0240006D024000C4
:100080006D0240006D0240006D0240006D024000B4
:100090006D0240006D0240006D024000E10B400027
:1000A0006D0240006D0240006D0240006D02400094
:1000B0006D0240006D0240006D0240006D02400084
:1000C0006D0240006D0240006D0240006D02400074
:1000D000000000006D024000000000006D024000C2
:1000E0006D0240006D0240006D0240006D02400054
:1000F0006D0240006D0240006D0240006D02400044
:100100006D0240006D0240006D0240006D02400033
:100110006D02400000000000000000000000000030
:100120006D0240006D0240006D0240006D02400013
:100130006D024000000000006D0240006D024000B2
:1001400080B400AF1F4B4FF400425A601E4B1F4A51
:100150001A601F4B1F4A1A6200BF1D4B9B6E03F0B3
:100160000103002BF9D01A4B1B4A1A6200BF184B2F
:100170009B6E03F48033002BF9D0154B174A9A621B
:1001800000BF134B9B6E03F00203002BF9D0104B02
:1001900040F201121A6300BF0D4B9B6E03F008037F
:1001A000002BF9D00A4B4FF481721A6300BF084B41
:1001B0009B6E03F00803002BF9D000BFBD465DF82D
:1001C000047B704750180E40000C0E4000050004E0
:1001D00000060E400908370009083701013F1820C2
:1001E00080B582B000AF1A4B7B601A4B3B6007E0D2
:1001F0003B681A1D3A607A68111D796012681A60AE
:100200003B68154A9342F3D3144B3B6004E03B68D0
:100210001A1D3A6000221A603B68114A9342F6D3D5
:10022000104A104BD3F8883043F47003C2F888307A
:10023000BFF34F8FBFF36F8F0A4B0B4A9A60BFF328
:100240004F8FBFF36F8FFFF77BFF00F005FDFEE7D9
:1002500034104000000040200000402000004020FA
:100260001400402000ED00E00000400080B400AF2A
:10027000FEE7FFFF80B485B000AFF860B9607A6038
:10028000FB68914A93420CD1904B9B6903F48063C5
:10029000002B06D18D4A8D4B1B6943F4806313619B
:1002A0004EE0FB688A4A934218D1884B9B6903F45D
:1002B0000063002B12D1854A844B1B6943F4006311
:1002C0001361BB68B3F5805F3AD88249814BD3F89C
:1002D0001421BB681343C1F8143131E0FB687E4A36
:1002E00093420CD1794B9B6903F48053002B06D1C8
:1002F000764A764B1B6943F48053136120E0FB6818
:10030000764A93420CD1714B9B6903F48033002BE6
:1003100006D16E4A6D4B1B6943F4803313610FE0C5
:10032000FB686F4A93420BD1684B9B6903F400331F
:10033000002B05D1654A654B1B6943F400331361FB
:100340007B6803F00103002B0CD0FB681A68BB68C4
:100350001A43FB681A60FB685A69BB681A43FB685A
:100360005A6124E07B6803F00203002B14D0FB6881
:100370001A68BB681A43FB681A60FB681A69BB6895
:100380001A43FB681A61FB68D3F8A020BB681A43C4
:10039000FB68C3F8A0200AE07B6803F00403002B8D
:1003A00005D0FB685A68BB681A43FB685A607B68D3
:1003B00003F00803002B0ED0FB68D3F89020BB6835
:1003C0001A43FB68C3F89020FB685A6EBB681A4357
:1003D000FB685A6626E07B6803F01003002B0ED002
:1003E000FB681A6EBB681A43FB681A66FB68D3F891
:1003F0009420BB681A43FB68C3F8942012E07B6822
:1004000003F02003002B0DD0FB681A6EBB681A4363
:10041000FB681A66FB68D3F89020BB681A43FB6838
:10042000C3F890207B6803F04003002B14D0FB68D6
:100430001A68BB681A43FB681A60FB685A69BB6894
:100440001A43FB685A61FB68D3F80021BB681A4362
:10045000FB68C3F800210DE07B6803F08003002BEC
:1004600008D0FB68D3F80021BB68DB431A40FB6867
:10047000C3F800217B6803F48073002B12D0FB6863
:100480001A68BB681A43FB681A60FB685A69BB6844
:100490001A43FB685A61FB681A6ABB681A43FB6817
:1004A0001A620AE07B6803F40073002B05D0FB6836
:1004B0001A6ABB681A43FB681A6200BF1437BD464C
:1004C0005DF8047B704700BF000E0E4000060E4032
:1004D00000100E400080084000120E4000140E4034
:1004E00000160E4080B483B000AF786039607B683E
:1004F0003A681A6300BF0C37BD465DF8047B70474D
:1005000080B483B000AF786039607B683A685A6322
:1005100000BF0C37BD465DF8047B704780B584B0E2
:1005200000AFF860B9601346FB71FB79002B04D073
:10053000B968F868FFF7D6FF03E0B968F868FFF715
:10054000DFFF00BF1037BD4680BDFFFFB0B491B0E4
:1005500000AF78601A4B07F10C041D460FCD0FC495
:100560000FCD0FC495E8070084E807000023FB6364
:10057000FB6B9B0007F14002134453F8343C114AD3
:10058000B2FBF3F27B68B2FBF3F3BB63BB6BB3F577
:10059000807F06D9FB6B0133FB63FB6B0A2BE7D92A
:1005A00000E000BFFB6B0A2B04D8FB6B1A02BB6B8D
:1005B000134300E0002318464437BD46B0BC7047E3
:1005C000340E400080D1F00880B584B000AF786070
:1005D00039607B68144A934206D1144A134B1B6955
:1005E00043F0004313610BE07B68114A934215D13D
:1005F0000E4A0E4BD3F8003143F08053C2F800315D
:100600007B680F229A603868FFF7A0FFF860FB68EC
:10061000002B05D07B68FA681A6002E000BF00E09A
:1006200000BF1037BD4680BD0000024000060E40EE
:1006300000C0054080B485B000AFF8600B467A601A
:10064000FB72FB7A7A68364941F82320FB7AFA6814
:1006500010335B0113440B221A60FB7AFA681033E3
:100660005B011344043364221A60FB7AFA685B016D
:10067000134403F503737A681A60FB6800229A64D6
:10068000FB681B6AFA7A012101FA02F21A43FB683D
:100690001A62FB689B6EFA7A01219140FA7A103255
:1006A000012000FA02F20A40D2431A40FB689A661F
:1006B000FB68D3F8C030FA7A01219140FA7A1032FF
:1006C000012000FA02F20A40D2431A40FB68C3F844
:1006D000C020FB68DB6EFA7AD200FF2101FA02F239
:1006E000D2431A40FB68DA66FB7AFA7AF96810326C
:1006F00052010A44126822F40022F96810335B01A7
:100700000B441A60FB7A012202FA03F31A46FB68D3
:100710005A6000BF1437BD465DF8047B704700BFC8
:1007200000004020FFFFFFFF80B485B000AF78607D
:100730000B46FB701346BB70BB7807EE903AB8EEE1
:10074000E76B9FED195B86EE057BF7EEC77BC7ED88
:10075000037AFB78164A52F8233007EE903AB8EE47
:10076000E77AFB78124A52F8233007EE903AF8EE17
:10077000E76AD7ED037A66EEA77A77EE677AFCEE42
:10078000E77A17EE903ABB60FB787A6810335B012A
:1007900013440433BA681A6000BF1437BD465DF8CD
:1007A000047B7047AFF30080000000000000594058
:1007B0000000402080B483B000AF0346FB710949BC
:1007C00097F907305B09FA7902F01F02012000FA5D
:1007D00002F241F8232000BF0C37BD465DF8047BD0
:1007E000704700BF00E100E080B5DEB000AF3B1D08
:1007F000186007F10C033C4A184611464FF4B673D3
:100800001A4600F07DFA05E03B1D3A1D1268A2F57C
:10081000B4721A603B1D1B68B3F5B47FF4DA05E0CF
:100820003B1D3A1D126802F5B4721A603B1D1B682D
:10083000002BF5DB3B1D1B68B3F5B47F15DA3B1DC0
:100840001B68B3F5877F10DB3B1D3A1D1268C2F5AC
:10085000B4721A6007F10C023B1D1B689B00134425
:10086000D3ED007AF1EE677A37E03B1D1B68B3F5F4
:10087000877F13DA3B1D1B68B32B0FDD3B1D3A1D31
:100880001268B43A1A6007F10C023B1D1B689B000A
:100890001344D3ED007AF1EE677A1EE03B1D1B682E
:1008A000B32B12DC3B1D1B685A2B0EDD3B1D3A1D82
:1008B0001268C2F1B4021A6007F10C023B1D1B68FA
:1008C0009B001344D3ED007A07E007F10C023B1DB7
:1008D0001B689B001344D3ED007AB0EE670A07F55E
:1008E000BC77BD4680BD00BF600E400080B483B0C1
:1008F00000AF78607B68002B01DB012301E04FF043
:10090000FF3318460C37BD465DF8047B7047FFFF88
:1009100080B584B000AF786035493648FFF754FEA3
:100920000023FB7333E0FB7B9B007A6813441B6856
:100930005B7D42F2341219462E48FFF77BFEFB7BAB
:100940009B007A6813441B685868FB7B9B007A689D
:1009500013441B689B6802221946FFF78BFCFB7B44
:100960009B007A6813441B68D868FB7B9B007A68FD
:1009700013441B681969FB7B9B007A6813441B684E
:100980001B7D1A46FFF776FCFB7B0133FB73FB7B79
:10099000032BC8D9022208211748FFF76BFC02225B
:1009A0004FF400711448FFF765FC02224FF4003148
:1009B0001148FFF75FFC02224FF400010E48FFF7D9
:1009C00059FC08210C48FFF78DFD4FF400710A48CF
:1009D000FFF788FD4FF400310748FFF783FD4FF420
:1009E00000010548FFF77EFD00BF1037BD4680BD02
:1009F00080D1F0080000024000120E4084B080B5A3
:100A000000AF07F1080E8EE80F0097F82030642B36
:100A100002D9642387F8203097F82030FB7797F8C5
:100A20002430BB77F868396997F82430012B0CBF64
:100A300001230023DBB21A46FFF770FD7B7F0522FE
:100A400019460448FFF770FE00BFBD46BDE8804070
:100A500004B070470000024090B52DED028B8DB0C0
:100A600004AF78613961FA60BB600023BB77ABE00B
:100A7000BB7F9B007A6913441B681B78012B1CD138
:100A80003B6907EE903AB8EEE78AFB68A3F59673E8
:100A90001846FFF7A9FEF0EE407A28EE277ABB68E9
:100AA00007EE903AF8EEE77A77EE677AFCEEE77AAF
:100AB000C7ED017A3B79FB776AE0BB7F9B007A69DF
:100AC00013441B681B78022B1BD13B6907EE903A3D
:100AD000B8EEE78AFB683C3B1846FFF785FEF0EE70
:100AE000407A28EE277ABB6807EE903AF8EEE77A6C
:100AF00077EE277AFCEEE77AC7ED017A3B79FB7750
:100B000046E0BB7F9B007A6913441B681B78032B6C
:100B10001BD13B6907EE903AB8EEE78AFB68E63BEB
:100B20001846FFF761FEF0EE407A28EE277ABB68A0
:100B300007EE903AF8EEE77A77EE677AFCEEE77A1E
:100B4000C7ED017A3B79FB7722E0BB7F9B007A6996
:100B500013441B681B78032B3BD13B6907EE903A8B
:100B6000B8EEE78AFB68823B1846FFF73DFEF0EEE1
:100B7000407A28EE277ABB6807EE903AF8EEE77ADB
:100B800077EE277AFCEEE77AC7ED017A3B79FB77BF
:100B9000BB7F9B007A6913441C68FB7F1846FFF7F4
:100BA000A5FE0346DBB20393FB7F02936A4604F182
:100BB000100393E8030082E8030094E80F00FFF7B6
:100BC0001DFFBB7F0133BB77BB7F032B7FF650AF8D
:100BD00000E000BF00BF2437BD46BDEC028B90BDD6
:100BE00080B500AF094B1B6A03F01003002B0BD03C
:100BF000074B1B78DBB2DB43DAB2054B11461970A9
:100C000001210448FFF78AFC00BF80BD00C00040FE
:100C10001000402000100E4080B500AF0C4B4FF488
:100C200000021A610B4B44F204025A60094B49F668
:100C30004042DA61074B05221A60064B10225A62C5
:100C4000044B05221A601720FFF7B4FD00BF80BDDA
:100C500000060E4000C00040B0B59CB000AF0222BC
:100C600001212248FFF706FB214B07F158041D46DE
:100C70000FCD0FC495E8030084E803001D4B07F176
:100C800040041D460FCD0FC495E8030084E803001F
:100C9000194B07F128041D460FCD0FC495E803003A
:100CA00084E80300154B07F110041D460FCD0FC457
:100CB00095E8030084E8030007F158033B6007F15F
:100CC00028037B6007F14003BB6007F11003FB6062
:100CD0003B461846FFF71CFE3846002300226421DD
:100CE000FFF7BAFEFFF798FFFEE700BF00100E40C7
:100CF000CC0F4000E40F4000FC0F400014104000F7
:100D0000844641EA000313F003036DD1403A41D316
:100D100051F8043B40F8043B51F8043B40F8043BD5
:100D200051F8043B40F8043B51F8043B40F8043BC5
:100D300051F8043B40F8043B51F8043B40F8043BB5
:100D400051F8043B40F8043B51F8043B40F8043BA5
:100D500051F8043B40F8043B51F8043B40F8043B95
:100D600051F8043B40F8043B51F8043B40F8043B85
:100D700051F8043B40F8043B51F8043B40F8043B75
:100D800051F8043B40F8043B51F8043B40F8043B65
:100D9000403ABDD2303211D351F8043B40F8043B05
:100DA00051F8043B40F8043B51F8043B40F8043B45
:100DB00051F8043B40F8043B103AEDD20C3205D315
:100DC00051F8043B40F8043B043AF9D2043208D00D
:100DD000D2071CBF11F8013B00F8013B01D30B887F
:100DE00003806046704700BF082A13D38B078DD05D
:100DF00010F003038AD0C3F10403D21ADB071CBF2F
:100E000011F8013B00F8013B80D331F8023B20F898
:100E1000023B7BE7043AD9D3013A11F8013B00F8D1
:100E2000013BF9D20B7803704B7843708B78837059
:100E3000604670470100000002000000040000004E
:100E4000080000001000000020000000400000002A
:100E5000800000000001000000020000000400000B
:100E6000000000007FF78E3C41F20E3D465E563D8D
:100E70003CDC8E3DD87EB23DC712D63D7496F93D1E
:100E80005E830E3E3C30203EC8D0313E6F63433E11
:100E9000E2E6543E8E59663E67BA773EED83843E65
:100EA0004B208D3EC8B1953E7A379E3ED9B0A63EC6
:100EB0003F1DAF3E037CB73E5CCCBF3EE50DC83E58
:100EC000B33FD03E6361D83E2A72E03E6171E83E96
:100ED000815EF03EE338F83E0000003F88D9033FD2
:100EE000C6A8073F766D0B3F46270F3FE0D5123F60
:100EF0001479163F8C101A3F069C1D3F1E1B213F84
:100F0000C18D243F7CF3273F2B4C2B3F6C972E3F0A
:100F10001BD5313FF704353FAB26383F043A3B3F02
:100F2000C03E3E3FAD34413F861B443F0AF3463F3F
:100F300017BB493F69734C3FBD1B4F3FF2B3513F55
:100F4000D63B543F25B3563FAC19593F4C6F5B3FDE
:100F5000E1B35D3F19E75F3FE108623F0919643F74
:100F60005D17663FCD03683F27DE693F37A66B3FBD
:100F7000EE5B6D3F2AFF6E3FB88F703F880D723F6A
:100F80007978733F68D0743F4415763FED46773FDC
:100F90005265783F5070793FE8677A3FE84B7B3F76
:100FA000611C7C3F1FD97C3F34827D3F7F177E3F91
:100FB000FE987E3FA3067F3F5B607F3F37A67F3F63
:100FC00017D87F3F0AF67F3F0000803F01000000F6
:100FD00000120E400000400000120E4000200000F1
:100FE000000000000200000000120E40040000009B
:100FF000000E0E400100000001010000030000008F
:1010000000120E4000000100000E0E4000800000A3
:10101000010200000400000000120E400000001059
:0C102000000E0E40001000000103000054
:04102C00F8B500BF54
:04103000F8B500BF50
:04000005004001E1D5
:00000001FF
