:020000040040BA
:1000000000004620E10140006D0240006D0240000A
:100010006D0240006D0240006D02400000000000D3
:100020000000000000000000000000006D02400021
:100030006D024000000000006D0240006D024000B3
:100040006D0240006D0240006D0240006D024000F4
:100050006D0240006D0240006D0240006D024000E4
:100060006D024000000000006D0240006D02400083
:100070006D0240006D0240006D0240006D024000C4
:100080006D0240006D0240006D0240006D024000B4
:100090006D0240006D0240006D0240006D024000A4
:1000A0006D0240006D0240006D0240006D02400094
:1000B0006D0240006D0240006D0240006D02400084
:1000C0006D0240006D0240006D0240006D02400074
:1000D000000000006D024000000000006D024000C2
:1000E0006D0240006D0240006D0240006D02400054
:1000F0006D0240006D0240006D0240006D02400044
:100100006D0240006D0240006D0240006D02400033
:100110006D02400000000000000000000000000030
:100120006D0240006D0240006D0240006D02400013
:100130006D024000000000006D0240006D024000B2
:1001400080B400AF1F4B4FF400425A601E4B1F4A51
:100150001A601F4B1F4A1A6200BF1D4B9B6E03F0B3
:100160000103002BF9D01A4B1B4A1A6200BF184B2F
:100170009B6E03F48033002BF9D0154B174A9A621B
:1001800000BF134B9B6E03F00203002BF9D0104B02
:1001900040F201121A6300BF0D4B9B6E03F008037F
:1001A000002BF9D00A4B4FF481721A6300BF084B41
:1001B0009B6E03F00803002BF9D000BFBD465DF82D
:1001C000047B704750180E40000C0E4000050004E0
:1001D00000060E400908370009083701013F1820C2
:1001E00080B582B000AF1A4B7B601A4B3B6007E0D2
:1001F0003B681A1D3A607A68111D796012681A60AE
:100200003B68154A9342F3D3144B3B6004E03B68D0
:100210001A1D3A6000221A603B68114A9342F6D3D5
:10022000104A104BD3F8883043F47003C2F888307A
:10023000BFF34F8FBFF36F8F0A4B0B4A9A60BFF328
:100240004F8FBFF36F8FFFF77BFF00F097FDFEE747
:10025000C80E400000004020000040200000402068
:100260000401402000ED00E00000400080B400AF39
:10027000FEE7FFFF80B485B000AFF860B9607A6038
:10028000FB68914A93420CD1904B9B6903F48063C5
:10029000002B06D18D4A8D4B1B6943F4806313619B
:1002A0004EE0FB688A4A934218D1884B9B6903F45D
:1002B0000063002B12D1854A844B1B6943F4006311
:1002C0001361BB68B3F5805F3AD88249814BD3F89C
:1002D0001421BB681343C1F8143131E0FB687E4A36
:1002E00093420CD1794B9B6903F48053002B06D1C8
:1002F000764A764B1B6943F48053136120E0FB6818
:10030000764A93420CD1714B9B6903F48033002BE6
:1003100006D16E4A6D4B1B6943F4803313610FE0C5
:10032000FB686F4A93420BD1684B9B6903F400331F
:10033000002B05D1654A654B1B6943F400331361FB
:100340007B6803F00103002B0CD0FB681A68BB68C4
:100350001A43FB681A60FB685A69BB681A43FB685A
:100360005A6124E07B6803F00203002B14D0FB6881
:100370001A68BB681A43FB681A60FB681A69BB6895
:100380001A43FB681A61FB68D3F8A020BB681A43C4
:10039000FB68C3F8A0200AE07B6803F00403002B8D
:1003A00005D0FB685A68BB681A43FB685A607B68D3
:1003B00003F00803002B0ED0FB68D3F89020BB6835
:1003C0001A43FB68C3F89020FB685A6EBB681A4357
:1003D000FB685A6626E07B6803F01003002B0ED002
:1003E000FB681A6EBB681A43FB681A66FB68D3F891
:1003F0009420BB681A43FB68C3F8942012E07B6822
:1004000003F02003002B0DD0FB681A6EBB681A4363
:10041000FB681A66FB68D3F89020BB681A43FB6838
:10042000C3F890207B6803F04003002B14D0FB68D6
:100430001A68BB681A43FB681A60FB685A69BB6894
:100440001A43FB685A61FB68D3F80021BB681A4362
:10045000FB68C3F800210DE07B6803F08003002BEC
:1004600008D0FB68D3F80021BB68DB431A40FB6867
:10047000C3F800217B6803F48073002B12D0FB6863
:100480001A68BB681A43FB681A60FB685A69BB6844
:100490001A43FB685A61FB681A6ABB681A43FB6817
:1004A0001A620AE07B6803F40073002B05D0FB6836
:1004B0001A6ABB681A43FB681A6200BF1437BD464C
:1004C0005DF8047B704700BF000E0E4000060E4032
:1004D00000100E400080084000120E4000140E4034
:1004E00000160E4080B483B000AF786039607B683E
:1004F0003A681A6300BF0C37BD465DF8047B70474D
:1005000080B483B000AF786039607B683A685A6322
:1005100000BF0C37BD465DF8047B704780B584B0E2
:1005200000AFF860B9601346FB71FB79002B04D073
:10053000B968F868FFF7D6FF03E0B968F868FFF715
:10054000DFFF00BF1037BD4680BD80B584B000AF6F
:10055000F860B9601346FB710422B968F868FFF7C8
:1005600089FEFB7903F00103002B06D0FB681A6FAC
:10057000BB681A43FB681A6706E0FB681A6FBB6822
:10058000DB431A40FB681A67FB7903F00203002B78
:1005900006D0FB685A6FBB681A43FB685A6706E0CF
:1005A000FB685A6FBB68DB431A40FB685A6700BFA1
:1005B0001037BD4680BDFFFF80B586B000AFF86044
:1005C000B9601346FB71FB68594A93420CD1594BF1
:1005D0001B6903F40013002B06D1564A554B1B69C7
:1005E00043F40013136112E0FB68534A93420ED1A7
:1005F000504BD3F8003103F48063002B07D14D4AF0
:100600004C4BD3F8003143F48063C2F80031FB68EF
:1006100000225A60FB6800221A63FB6800225A63BA
:10062000FB6800229A63FB680022DA63FB68FF2202
:100630009A61FB6882221A60FB685B6843F01102D2
:10064000FB685A60FB685A68FB685A60FB7903F0E4
:100650000803002B68D0FB681A6BFB7903F00303D7
:100660001A43FB681A63FB681A6BFB681A63BB6862
:10067000002B01D10123BB60304ABB68B2FBF3F30E
:10068000FB75FB7D002B01D10123FB75FB681B6B08
:10069000FA7D12021A43FB681A63FB685B6BFA7DF2
:1006A00012021A43FB685A63FB689B6BFA7D1202C5
:1006B0001A43FB689A63FB68DB6BFA7D12021A43EC
:1006C000FB68DA6304224FF480011D48FFF7D2FD76
:1006D00001224FF480011A48FFF737FF04224FF43C
:1006E00000111748FFF7C6FD01224FF4001114480E
:1006F000FFF72BFF04224FF480111148FFF7BAFDDA
:1007000001224FF480110E48FFF71FFFFB681B68A2
:1007100043F00102FB681A6000BFFB681B6903F429
:100720008033002BF9D000E000BF1837BD4680BDF4
:100730000080004000060E400080054080D1F00897
:1007400000140E4080B483B000AF78600B46FB709D
:1007500000BF7B681B6903F40073002BF9D0FA78A3
:100760007B68DA6000BF0C37BD465DF8047B7047DC
:1007700080B485B000AF78607B681B69DBB203F0A2
:100780000103FB73FB7B18461437BD465DF8047B01
:10079000704780B485B000AF78607B689B68FB735E
:1007A000FB7B18461437BD465DF8047B704780B567
:1007B00082B000AF78600B46FB70FB781946786812
:1007C000FFF7C0FF00BF7868FFF7D2FF0346002B9A
:1007D000F9D07868FFF7DDFF034618460837BD46B5
:1007E00080BDFFFF80B584B000AF0346FB71FB798D
:1007F00003F01F03FB714FF080610C48FFF780FE90
:10080000FB7919460A48FFF7D2FF00210848FFF795
:10081000CEFF0346FB734FF080610448FFF762FE92
:10082000FB7B18461037BD4680BD00BF00140E404C
:100830000080004080B584B000AF03463960FB7192
:100840001346BB71FB7903F01F03FB714FF080610E
:100850001248FFF755FEFB7943F02003DBB219463F
:100860000F48FFF7A4FF0023FB730AE03B685A1C04
:100870003A601B7819460A48FFF799FFFB7B013362
:10088000FB73FA7BBB799A42F0D34FF08061034847
:10089000FFF728FE00BF1037BD4680BD00140E4094
:1008A0000080004080B582B000AF03460A46FB716D
:1008B0001346BB71FB7903F01F03FB714FF080619E
:1008C0000C48FFF71DFEFB7943F02003DBB219460D
:1008D0000948FFF76CFFBB7919460748FFF767FF28
:1008E0004FF080610348FFF7FDFD00BF0837BD46AC
:1008F00080BD00BF00140E400080004080B582B073
:1009000000AF4FF080610948FFF7FAFDFF2108486A
:10091000FFF74DFF0346FB714FF080610348FFF77F
:10092000E1FDFB7918460837BD4680BD00140E4036
:100930000080004080B582B000AF0346FB71FB79B8
:10094000102B02D8FB791133FB71FB791846FFF7A6
:1009500049FF034618460837BD4680BD90B585B0AF
:1009600000AF0346FB71FB791846FFF7E3FF034630
:10097000BB734FF080611848FFF7C2FD6121174833
:10098000FFF715FF0023FB7312E0154B1B78DBB25A
:100990005A1CD1B2124A11701C46FF210F48FFF7B2
:1009A00006FF03461A460F4B1A55FB7B0133FB73B8
:1009B000FA7BBB7B9A42E8D34FF080610648FFF791
:1009C00091FD074B1B78DAB2BB7BD31ADBB218461A
:1009D0001437BD4690BD00BF00140E40008000409B
:1009E000000040200400402080B500AF4FF080613F
:1009F0000648FFF785FDE1210548FFF7D8FE4FF0D7
:100A000080610248FFF76EFD00BF80BD00140E40FC
:100A10000080004080B500AF4FF080610648FFF7CE
:100A20006FFDE2210548FFF7C2FE4FF080610248EA
:100A3000FFF758FD00BF80BD00140E40008000404D
:100A400080B582B000AF0346FB71FB7903F03F0332
:100A5000DBB219460120FFF725FF00BF0837BD466E
:100A600080BD80B584B000AF0346FB710020FFF766
:100A7000B9FE0346FB73FB7B23F00103FB73FB7999
:100A8000012B03D1FB7B43F00103FB73FB7B194676
:100A90000020FFF707FF00BF1037BD4680BDFFFFF6
:100AA00080B582B000AF0020FFF79CFE0346FB71CB
:100AB000FB7903F00103002B05D04FF000710448CF
:100AC000FFF71EFD00E000BF0837BD4680BD00BF38
:100AD00000140E4080B582B000AF0020FFF782FE08
:100AE0000346FB71FB7903F00103002B05D04FF0A7
:100AF00000710448FFF7F6FC00E000BF0837BD4670
:100B000080BD00BF00140E4080B584B000AF02224B
:100B10004FF000712A48FFF7ADFB02224FF08061D1
:100B20002748FFF7A7FB4FF080612548FFF7DAFC65
:100B30004FF000712248FFF7E3FC0023FB6003E065
:100B400000BFFB680133FB60FB681E4A9342F7D984
:100B50000C210020FFF7A6FE3F20FFF771FF0021C8
:100B60001D20FFF79FFE00211C20FFF79BFE702138
:100B70000720FFF797FEFFF74DFFFFF735FF002037
:100B8000FFF730FE0346FB71FB7943F00203FB7174
:100B9000FB7919460020FFF785FE0023BB6002E0C9
:100BA000BB680133BB60BB68074A9342F8D9002099
:100BB000FFF757FF012318461037BD4680BD00BF21
:100BC00000140E403F420F009F86010080B582B0A6
:100BD00000AF0346FB71FB7903F07F03FB71FB79E8
:100BE00019460520FFF75EFE00BF0837BD4680BDF1
:100BF00080B584B000AF0346FB710620FFF7F2FD1D
:100C00000346FB73FB7B23F02803FB73FB79012B6B
:100C10000ED0022B07D0002B00D00FE0FB7B43F05F
:100C20002003FB7305E0FB7B43F00803FB7300E04C
:100C300000BFFB7B19460620FFF734FE1037BD4688
:100C400080BD80B584B000AF0346FB710620FFF77E
:100C5000C9FD0346FB73FB7B23F00603FB7397F987
:100C6000073003F006035AB297F90F3013435BB213
:100C7000FB73FB7B19460620FFF714FE00BF1037FD
:100C8000BD4680BD80B582B000AF396011461A46BE
:100C90000346FB710B46BB7113467B71FB79092B35
:100CA00002D8FB790A33FB71FB7903F00F03FB7168
:100CB000FB790B2B02D9BB79012B0ED8BA79FB79C2
:100CC00039681846FFF7B6FDFB790733DBB27A794E
:100CD00011461846FFF7E6FD00E000BF0837BD46A5
:100CE00080BD80B582B000AFFFF708FE0346FB7100
:100CF000FB795B08DBB203F00703DBB21846083769
:100D0000BD4680BD80B584B000AF786000BF00F004
:100D10001CF80346002BFAD0FFF7E3FF0346FB73F2
:100D2000FFF7BEFEFB7B1846FFF718FE03461A4688
:100D30007B681A7040210720FFF7B4FDFFF7CAFE59
:100D4000FB7B18461037BD4680BD80B582B000AF32
:100D5000FFF7D4FD0346FB71FB7903F04003002B42
:100D600006D0FFF7BEFF0346072B01D0012300E0AA
:100D7000002318460837BD4680BDFFFF80B584B00C
:100D800000AF022201214748FFF774FA0222022134
:100D90004448FFF76FFA022204214248FFF76AFA3B
:100DA000022208213F48FFF765FA0A223E493F48E0
:100DB000FFF702FCFFF7A8FE0120FFF752FE1F20FD
:100DC000FFF704FF0120FFF713FF0620FFF739FFAD
:100DD000374A07F1080392E80300186004331970DA
:100DE00007F10801012305220120FFF74BFFFFF760
:100DF00071FE00237B6000BFFFF7A7FF0346002BB7
:100E0000FAD00023FB70FB1C1846FFF77BFF03465C
:100E1000FB73FB7B1846FFF78DFDFB781A46254BCD
:100E20009B5C312B04D13B79C3F10103DBB23B71F5
:100E3000FB781A461F4B9B5C322B04D17B79C3F1A4
:100E40000103DBB27B71FB781A461A4B9B5C332B98
:100E500004D1BB79C3F10103DBB2BB71FB781A4645
:100E6000144B9B5C342B04D1FB79C3F10103DBB23F
:100E7000FB713B791A4601210A48FFF74FFB7B794A
:100E80001A4602210748FFF749FBBB791A4604219D
:100E90000448FFF743FBFB791A4608210148FFF796
:100EA0003DFBA8E700100E4040420F0000800040CC
:100EB000B80E4000040040200001020304FFFFFFC1
:040EC000F8B500BFC2
:040EC400F8B500BFBE
:04000005004001E1D5
:00000001FF
