:020000040040BA
:1000000000004620E10140006D0240006D0240000A
:100010006D0240006D0240006D02400000000000D3
:100020000000000000000000000000006D02400021
:100030006D024000000000006D0240006D024000B3
:100040006D0240006D0240006D0240006D024000F4
:100050006D0240006D0240006D0240006D024000E4
:100060006D024000000000006D0240006D02400083
:100070006D0240006D0240006D0240006D024000C4
:100080006D0240006D0240006D0240006D024000B4
:100090006D0240006D0240006D0240006D024000A4
:1000A0006D0240006D0240006D0240006D02400094
:1000B0006D0240006D0240006D024000A91040003A
:1000C0006D0240006D0240006D0240006D02400074
:1000D000000000006D024000000000006D024000C2
:1000E0006D0240006D0240006D0240006D02400054
:1000F0006D0240006D0240006D0240006D02400044
:100100006D0240006D0240006D0240006D02400033
:100110006D02400000000000000000000000000030
:100120006D0240006D0240006D0240006D02400013
:100130006D024000000000006D0240006D024000B2
:1001400080B400AF1F4B4FF400425A601E4B1F4A51
:100150001A601F4B1F4A1A6200BF1D4B9B6E03F0B3
:100160000103002BF9D01A4B1B4A1A6200BF184B2F
:100170009B6E03F48033002BF9D0154B174A9A621B
:1001800000BF134B9B6E03F00203002BF9D0104B02
:1001900040F201121A6300BF0D4B9B6E03F008037F
:1001A000002BF9D00A4B4FF481721A6300BF084B41
:1001B0009B6E03F00803002BF9D000BFBD465DF82D
:1001C000047B704750180E40000C0E4000050004E0
:1001D00000060E400908370009083701013F1820C2
:1001E00080B582B000AF1A4B7B601A4B3B6007E0D2
:1001F0003B681A1D3A607A68111D796012681A60AE
:100200003B68154A9342F3D3144B3B6004E03B68D0
:100210001A1D3A6000221A603B68114A9342F6D3D5
:10022000104A104BD3F8883043F47003C2F888307A
:10023000BFF34F8FBFF36F8F0A4B0B4A9A60BFF328
:100240004F8FBFF36F8FFFF77BFF00F071FFFEE76B
:10025000A417400000004020100040201000402063
:100260002801402000ED00E00000400080B400AF15
:10027000FEE7FFFF80B485B000AFF860B9607A6038
:10028000FB68914A93420CD1904B9B6903F48063C5
:10029000002B06D18D4A8D4B1B6943F4806313619B
:1002A0004EE0FB688A4A934218D1884B9B6903F45D
:1002B0000063002B12D1854A844B1B6943F4006311
:1002C0001361BB68B3F5805F3AD88249814BD3F89C
:1002D0001421BB681343C1F8143131E0FB687E4A36
:1002E00093420CD1794B9B6903F48053002B06D1C8
:1002F000764A764B1B6943F48053136120E0FB6818
:10030000764A93420CD1714B9B6903F48033002BE6
:1003100006D16E4A6D4B1B6943F4803313610FE0C5
:10032000FB686F4A93420BD1684B9B6903F400331F
:10033000002B05D1654A654B1B6943F400331361FB
:100340007B6803F00103002B0CD0FB681A68BB68C4
:100350001A43FB681A60FB685A69BB681A43FB685A
:100360005A6124E07B6803F00203002B14D0FB6881
:100370001A68BB681A43FB681A60FB681A69BB6895
:100380001A43FB681A61FB68D3F8A020BB681A43C4
:10039000FB68C3F8A0200AE07B6803F00403002B8D
:1003A00005D0FB685A68BB681A43FB685A607B68D3
:1003B00003F00803002B0ED0FB68D3F89020BB6835
:1003C0001A43FB68C3F89020FB685A6EBB681A4357
:1003D000FB685A6626E07B6803F01003002B0ED002
:1003E000FB681A6EBB681A43FB681A66FB68D3F891
:1003F0009420BB681A43FB68C3F8942012E07B6822
:1004000003F02003002B0DD0FB681A6EBB681A4363
:10041000FB681A66FB68D3F89020BB681A43FB6838
:10042000C3F890207B6803F04003002B14D0FB68D6
:100430001A68BB681A43FB681A60FB685A69BB6894
:100440001A43FB685A61FB68D3F80021BB681A4362
:10045000FB68C3F800210DE07B6803F08003002BEC
:1004600008D0FB68D3F80021BB68DB431A40FB6867
:10047000C3F800217B6803F48073002B12D0FB6863
:100480001A68BB681A43FB681A60FB685A69BB6844
:100490001A43FB685A61FB681A6ABB681A43FB6817
:1004A0001A620AE07B6803F40073002B05D0FB6836
:1004B0001A6ABB681A43FB681A6200BF1437BD464C
:1004C0005DF8047B704700BF000E0E4000060E4032
:1004D00000100E400080084000120E4000140E4034
:1004E00000160E4080B483B000AF786039607B683E
:1004F0003A681A6300BF0C37BD465DF8047B70474D
:1005000080B483B000AF786039607B683A685A6322
:1005100000BF0C37BD465DF8047B704780B584B0E2
:1005200000AFF860B9601346FB710422B968F8683F
:10053000FFF7A0FEFB7903F00103002B06D0FB6858
:100540001A6FBB681A43FB681A6706E0FB681A6FEC
:10055000BB68DB431A40FB681A67FB7903F00203B0
:10056000002B06D0FB685A6FBB681A43FB685A67BA
:1005700006E0FB685A6FBB68DB431A40FB685A67AA
:1005800000BF1037BD4680BDB0B491B000AF7860F9
:1005900039601B4B07F10C041D460FCD0FC40FCD66
:1005A0000FC495E8070084E807000023FB63FB6B9A
:1005B0009B0007F14002134453F8343C3A68B2FB05
:1005C000F3F27B68B2FBF3F3BB63BB6BB3F5807FE5
:1005D00006D9FB6B0133FB63FB6B0A2BE7D900E009
:1005E00000BFFB6B0A2B04D8FB6B1A02BB6B1343D7
:1005F00001E04FF6FF7318464437BD46B0BC704764
:100600005C17400080B584B000AF7860396000238B
:10061000FB603B681B68002B11D03B681A683B6885
:100620009B6819461046FFF7AFFFB860BB684FF6EE
:10063000FF72934201D1BB681EE0BB68FB603B6860
:100640005B68002B14D03B685A683B689B6819466E
:100650001046FFF799FFB860BB684FF6FF729342F0
:1006600001D1BB6808E0BB681B04FA681343FB6058
:100670007B68FA681A60002318461037BD4680BDB3
:1006800080B485B000AF786039600023FB603B68C0
:100690001B68BB603B685B6803F00F033A68927AA3
:1006A000520213433A6812891343FB607A68BB68AD
:1006B00010335B011344FA681A603B68DA687968A2
:1006C000BB6810335B010B4404331A603B681A6942
:1006D0007968BB685B010B4403F503731A60002360
:1006E00018461437BD465DF8047B704780B487B068
:1006F00000AFF860B9607A60BB681B687B61BB685B
:100700001A697B689A4202D24FF6FF730BE0BB680E
:100710007A68DA60FA687B695B01134403F5027357
:100720007A681A60002318461C37BD465DF8047BC2
:10073000704780B483B000AF7860396001223B68B5
:1007400002FA03F31A467B685A6000BF0C37BD46B5
:100750005DF8047B704780B483B000AF7860396087
:1007600001223B6802FA03F31A467B689A6000BFD5
:100770000C37BD465DF8047B704780B483B000AF92
:1007800078607B68DB6918460C37BD465DF8047BF2
:10079000704780B485B000AFF860B9607A6001221C
:1007A000BB689A407B681033012101FA03F31343BD
:1007B0001A46FB681A6100BF1437BD465DF8047B1A
:1007C000704780B485B000AFF860B9607A600122EC
:1007D000BB689A407B681033012101FA03F313438D
:1007E0001A46FB685A6100BF1437BD465DF8047BAA
:1007F0007047FFFF80B586B000AFF860B960134660
:10080000FB71FB68594A93420CD1594B1B6903F4A5
:100810000013002B06D1564A554B1B6943F40013B5
:10082000136112E0FB68534A93420ED1504BD3F848
:10083000003103F48063002B07D14D4A4C4BD3F8B1
:10084000003143F48063C2F80031FB6800225A6033
:10085000FB6800221A63FB6800225A63FB680022CF
:100860009A63FB680022DA63FB68FF229A61FB68E7
:1008700082221A60FB685B6843F01102FB685A60D1
:10088000FB685A68FB685A60FB7903F00803002B89
:1008900068D0FB681A6BFB7903F003031A43FB680B
:1008A0001A63FB681A6BFB681A63BB68002B01D1E3
:1008B0000123BB60304ABB68B2FBF3F3FB75FB7DE1
:1008C000002B01D10123FB75FB681B6BFA7D120223
:1008D0001A43FB681A63FB685B6BFA7D12021A43CA
:1008E000FB685A63FB689B6BFA7D12021A43FB6834
:1008F0009A63FB68DB6BFA7D12021A43FB68DA63CA
:1009000004224FF480011D48FFF7B4FC01224FF48C
:1009100080011A48FFF702FE04224FF40011174825
:10092000FFF7A8FC01224FF400111448FFF7F6FD71
:1009300004224FF480111148FFF79CFC01224FF470
:1009400080110E48FFF7EAFDFB681B6843F00102C7
:10095000FB681A6000BFFB681B6903F48033002B3F
:10096000F9D000E000BF1837BD4680BD00800040D0
:1009700000060E400080054080D1F00800140E40B3
:1009800080B483B000AF78600B46FB7000BF7B681B
:100990001B6903F40073002BF9D0FA787B68DA60E6
:1009A00000BF0C37BD465DF8047B704780B485B04E
:1009B00000AF78607B681B69DBB203F00103FB7357
:1009C000FB7B18461437BD465DF8047B704780B446
:1009D00085B000AF78607B689B68FB73FB7B184633
:1009E0001437BD465DF8047B704780B582B000AF18
:1009F00078600B46FB70FB7819467868FFF7C0FFFC
:100A000000BF7868FFF7D2FF0346002BF9D0786863
:100A1000FFF7DDFF034618460837BD4680BDFFFFE0
:100A200080B584B000AF0346FB71FB7903F01F0370
:100A3000FB714FF080610C48FFF762FDFB791946AE
:100A40000A48FFF7D2FF00210848FFF7CEFF034610
:100A5000FB734FF080610448FFF744FDFB7B1846B1
:100A60001037BD4680BD00BF00140E40008000401E
:100A700080B584B000AF03463960FB711346BB718B
:100A8000FB7903F01F03FB714FF080611248FFF701
:100A900037FDFB7943F02003DBB219460F48FFF71F
:100AA000A4FF0023FB730AE03B685A1C3A601B78E2
:100AB00019460A48FFF799FFFB7B0133FB73FA7B6A
:100AC000BB799A42F0D34FF080610348FFF70AFDEB
:100AD00000BF1037BD4680BD00140E4000800040AE
:100AE00080B582B000AF03460A46FB711346BB7166
:100AF000FB7903F01F03FB714FF080610C48FFF797
:100B0000FFFCFB7943F02003DBB219460948FFF7ED
:100B10006CFFBB7919460748FFF767FF4FF080610C
:100B20000348FFF7DFFC00BF0837BD4680BD00BFAC
:100B300000140E400080004080B582B000AF4FF03E
:100B400080610948FFF7DCFCFF210848FFF74DFFF3
:100B50000346FB714FF080610348FFF7C3FCFB794C
:100B600018460837BD4680BD00140E400080004086
:100B700080B582B000AF0346FB71FB79102B02D821
:100B8000FB791133FB71FB791846FFF749FF0346E8
:100B900018460837BD4680BD90B585B000AF034606
:100BA000FB71FB791846FFF7E3FF0346BB734FF079
:100BB00080611848FFF7A4FC61211748FFF715FF73
:100BC0000023FB7312E0154B1B78DBB25A1CD1B229
:100BD000124A11701C46FF210F48FFF706FF03461B
:100BE0001A460F4B1A55FB7B0133FB73FA7BBB7B19
:100BF0009A42E8D34FF080610648FFF773FC074B39
:100C00001B78DAB2BB7BD31ADBB218461437BD4669
:100C100090BD00BF00140E40008000401000402036
:100C20001400402080B500AF4FF080610648FFF708
:100C300067FCE1210548FFF7D8FE4FF080610248CC
:100C4000FFF750FC00BF80BD00140E400080004044
:100C500080B500AF4FF080610648FFF751FCE221FC
:100C60000548FFF7C2FE4FF080610248FFF73AFCEB
:100C700000BF80BD00140E400080004080B582B0EF
:100C800000AF0346FB71FB7903F03F03DBB219466B
:100C90000120FFF725FF00BF0837BD4680BD80B5A6
:100CA00084B000AF0346FB710020FFF7B9FE034696
:100CB000FB73FB7B23F00103FB73FB79012B03D157
:100CC000FB7B43F00103FB73FB7B19460020FFF71E
:100CD00007FF00BF1037BD4680BDFFFF80B582B063
:100CE00000AF0020FFF79CFE0346FB71FB7903F089
:100CF0000103002B05D04FF000710448FFF700FC02
:100D000000E000BF0837BD4680BD00BF00140E40A4
:100D100080B582B000AF0020FFF782FE0346FB7172
:100D2000FB7903F00103002B05D04FF0007104485C
:100D3000FFF7D8FB00E000BF0837BD4680BD00BF0D
:100D400000140E4080B584B000AF02224FF0007155
:100D50002A48FFF78FFA02224FF080612748FFF7F9
:100D600089FA4FF080612548FFF7BCFB4FF0007116
:100D70002248FFF7C5FB0023FB6003E000BFFB68D0
:100D80000133FB60FB681E4A9342F7D90C21002017
:100D9000FFF7A6FE3F20FFF771FF00211D20FFF7A0
:100DA0009FFE00211C20FFF79BFE70210720FFF70C
:100DB00097FEFFF74DFFFFF735FF0020FFF730FEEE
:100DC0000346FB71FB7943F00203FB71FB79194683
:100DD0000020FFF785FE0023BB6002E0BB68013303
:100DE000BB60BB68074A9342F8D90020FFF757FF62
:100DF000012318461037BD4680BD00BF00140E40C9
:100E00003F420F009F86010080B582B000AF0346CD
:100E1000FB71FB7903F07F03FB71FB791946052019
:100E2000FFF75EFE00BF0837BD4680BD80B584B0C9
:100E300000AF0346FB710620FFF7F2FD0346FB738C
:100E4000FB7B23F02803FB73FB79012B0ED0022BD5
:100E500007D0002B00D00FE0FB7B43F02003FB7397
:100E600005E0FB7B43F00803FB7300E000BFFB7B66
:100E700019460620FFF734FE1037BD4680BD80B509
:100E800084B000AF0346FB710620FFF7C9FD03469F
:100E9000FB73FB7B23F00603FB7397F9073003F02A
:100EA00006035AB297F90F3013435BB2FB73FB7B17
:100EB00019460620FFF714FE00BF1037BD4680BD5F
:100EC00080B582B000AF396011461A460346FB7107
:100ED0000B46BB7113467B71FB79092B02D8FB795A
:100EE0000A33FB71FB7903F00F03FB71FB790B2BCA
:100EF00002D9BB79012B0ED8BA79FB79396818462B
:100F0000FFF7B6FDFB790733DBB27A791146184655
:100F1000FFF7E6FD00E000BF0837BD4680BD80B5A5
:100F200082B000AFFFF708FE0346FB71FB795B0858
:100F3000DBB203F00703DBB218460837BD4680BDBD
:100F400080B584B000AF786000BF00F01CF80346A5
:100F5000002BFAD0FFF7E3FF0346FB73FFF7BEFE5B
:100F6000FB7B1846FFF718FE03461A467B681A708B
:100F700040210720FFF7B4FDFFF7CAFEFB7B1846B0
:100F80001037BD4680BD80B582B000AFFFF7D4FDFD
:100F90000346FB71FB7903F04003002B06D0FFF7FB
:100FA000BEFF0346072B01D0012300E000231846B3
:100FB0000837BD4680BDFFFF80B483B000AF034655
:100FC000FB71094997F907305B09FA7902F01F02B2
:100FD000012000FA02F241F8232000BF0C37BD4681
:100FE0005DF8047B704700BF00E100E080B483B08F
:100FF00000AF0346FB71094997F907305B09FA799D
:1010000002F01F02012000FA02F2203341F82320EF
:1010100000BF0C37BD465DF8047B704700E100E07F
:1010200080B483B000AF0346FB71094997F90730DC
:101030005B09FA7902F01F02012000FA02F2603324
:1010400041F8232000BF0C37BD465DF8047B704794
:1010500000E100E080B483B000AF03463960FB716B
:1010600097F90730002B0BDA0D49FB7903F00F03DA
:10107000043B3A68D2B25201D2B20B441A7609E06C
:10108000084997F907303A68D2B25201D2B20B44FC
:1010900083F8002300BF0C37BD465DF8047B704722
:1010A00000ED00E000E100E080B582B000AF1A483A
:1010B000FFF763FB78607B6803F00103002B27D008
:1010C000164B00221A60164B1B681A461349124829
:1010D000FFF70CFB114B01221A60124B1B681A46DA
:1010E0000E490D48FFF702FB0C4B02221A600E4B13
:1010F0001B681A4609490848FFF7F8FA074B03220C
:101100001A600A4B1B681A4604490348FFF7EEFAB7
:1011100000BF0837BD4680BD0000024014014020DA
:101120000000402004004020080040200C00402027
:1011300080B58AB000AFBE4ABD4B1B6943F0004387
:1011400013610021BB48FFF706FB0121B948FFF7F7
:1011500002FB0221B748FFF7FEFA0321B548FFF76B
:10116000FAFAB54A07F1180307CA83E8070007F13E
:1011700018031946AF48FFF745FAB04B00221A8111
:10118000AE4B00229A72AD4B0B225A60AB4B42F22F
:1011900034121A61A94B0022DA60A84B00221A60AF
:1011A000A649A448FFF76CFA00220021A148FFF7E6
:1011B000F0FAA24B01221A60A0499E48FFF760FA9C
:1011C000002201219B48FFF7FCFA9C4B02221A6087
:1011D0009A499848FFF754FA002202219548FFF7F0
:1011E000F0FA964B03221A6094499248FFF748FAA6
:1011F000002203218F48FFF7E4FA1F20FFF7F6FED5
:101200001F20FFF70DFF00211F20FFF723FF1F20E6
:10121000FFF7D2FE00218748FFF78BFA01218548AE
:10122000FFF787FA02218348FFF783FA03218148F9
:10123000FFF77FFA022208218148FFF71BF80222FC
:101240004FF400717E48FFF715F802224FF4003189
:101250007B48FFF70FF802224FF400017848FFF7B0
:1012600009F8022204217648FFF704F802224FF41D
:1012700080717348FEF7FEFF02224FF48031704800
:10128000FEF7F8FF02224FF480016D48FEF7F2FFEF
:10129000002201216B48FFF741F901224FF48051F0
:1012A0006848FFF73BF901224FF000716548FFF7EE
:1012B00035F901224FF400516148FFF72FF9082159
:1012C0005F48FFF70FF94FF400715D48FFF70AF927
:1012D0004FF400315A48FFF705F94FF40001584820
:1012E000FFF700F9022201215748FEF7C3FF012151
:1012F0005548FFF7F7F80023BB6002E0BB680133F5
:10130000BB60BB68514A9342F8D901214E48FFF7B0
:10131000F7F800237B6002E07B6801337B607B6829
:101320004A4A9342F8D9022201214748FEF7A2FF18
:10133000022202214448FEF79DFF02220421424876
:10134000FEF798FF022208213F48FEF793FF0A228A
:101350003F494048FFF74EFAFFF7F4FC0120FFF742
:101360009EFC1F20FFF750FD0120FFF75FFD0620C8
:10137000FFF785FD384A07F1100392E80300186073
:101380000433197007F11001012305220120FFF732
:1013900097FDFFF7BDFC0023FB6000BFFFF7F3FDE7
:1013A0000346002BFAD00023FB70FB1C1846FFF706
:1013B000C7FD034687F8273097F827301846FFF710
:1013C000D7FBFB781A46254B9B5C312B04D13B7B2A
:1013D000C3F10A03DBB23B73FB781A461F4B9B5CDD
:1013E000322B04D17B7BC3F10A03DBB27B73FB7826
:1013F0001A461A4B9B5C332B04D1BB7BC3F10A0307
:10140000DBB2BB73FB781A46144B9B5C342B04D1C4
:10141000FB7BC3F10A03DBB2FB733B7B18467B7B90
:101420001946BB7B1A46FB7B00F01AF8B5E700BFF4
:1014300000060E40000002408817400014014020C2
:1014400000120E40000E0E4000100E403F420F00F2
:1014500040420F00008000409417400014004020DC
:1014600080B584B000AFF860B9607A603B60FB681B
:1014700013F1640FB4BF01230023DAB2FB68642BBD
:10148000CCBF01230023DBB21343DBB21A463B6817
:1014900013F1640FB4BF01230023DBB213433A6896
:1014A000642ACCBF01220022D2B21343BA6812F1DF
:1014B000640FB4BF01220022D2B21343BA68642A77
:1014C000CCBF01220022D2B213437A6812F1640F1A
:1014D000B4BF01220022D2B21343BA68642ACCBF3F
:1014E00001220022D2B21343002B0BD0944B0022D6
:1014F0001A60944B00221A60934B00221A60934B9F
:1015000000221A60FB68002B13DD04219048FEF7CF
:10151000F7FFFB688F4A02FB03F38F4A82FB03123B
:101520005211DB17D21A42F234131344844A136067
:101530002CE0FB68002B16DA04218548FEF7D2FF69
:10154000FB685B42FB60FB68824A02FB03F3824A52
:1015500082FB03125211DB17D21A42F234131344E6
:10156000774A136012E004217948FEF7C9FFFB684F
:10157000784A02FB03F3784A82FB03125211DB170D
:10158000D21A42F2341313446D4A1360BB68002B25
:1015900014DD4FF480716E48FEF7B2FFBB686D4AF0
:1015A00002FB03F36C4A82FB03125211DB17D21ABF
:1015B00042F234131344634A13602EE0BB68002BDD
:1015C00017DA4FF480716248FEF78CFFBB685B420C
:1015D000BB60BB685F4A02FB03F35F4A82FB0312F6
:1015E0005211DB17D21A42F234131344554A1360D6
:1015F00013E04FF480715648FEF782FFBB68554AEE
:1016000002FB03F3544A82FB03125211DB17D21A76
:1016100042F2341313444B4A13607B68002B14DDF1
:101620004FF480314A48FEF76BFF7B68494A02FB62
:1016300003F3494A82FB03125211DB17D21A42F21A
:1016400034131344404A13602EE07B68002B17DAF2
:101650004FF480313E48FEF745FF7B685B427B607C
:101660007B683C4A02FB03F33B4A82FB03125211A4
:10167000DB17D21A42F234131344334A136013E0D7
:101680004FF480313248FEF73BFF7B68314A02FB62
:1016900003F3314A82FB03125211DB17D21A42F2D2
:1016A00034131344284A13603B68002B14DD4FF4B5
:1016B00080012748FEF724FF3B68264A02FB03F31C
:1016C000254A82FB03125211DB17D21A42F234135D
:1016D00013441E4A13602FE03B68002B17DA4FF4C7
:1016E00080011B48FEF7FEFE3B685B423B603B68A7
:1016F000184A02FB03F3184A82FB03125211DB174C
:10170000D21A42F234131344104A136014E04FF417
:1017100080010F48FEF7F4FE3B680E4A02FB03F31C
:101720000D4A82FB03125211DB17D21A42F2341314
:101730001344064A136000BF1037BD4680BD00BF8A
:101740000000402004004020080040200C00402001
:1017500000120E40CCDEFFFF1F85EB5101000000A0
:10176000020000000400000008000000100000005B
:101770002000000040000000800000000001000088
:10178000000200000004000080D1F008000000000A
:0C17900080D1F0080001020304FFFFFFFD
:04179C00F8B500BFDD
:0417A000F8B500BFD9
:1017A40034210000342100003421000034210000E1
:04000005004001E1D5
:00000001FF
